:020000041000EA
:10000000002008205D0100101301001015010010F0
:100010001101001011010010110100101101001058
:100020001101001011010010110100101701001042
:100030001101001011010010190100101B01001026
:100040001D0100101D0100101D0100101D010010F8
:100050001D0100101D0100101D0100101D010010E8
:100060001D0100101D0100101D0100101D010010D8
:100070001D0100101D0100101D0100101D010010C8
:100080001D0100101D0100101D0100101D010010B8
:100090001D0100101D0100101D0100101D010010A8
:1000A0001D0100101D0100101D0100101D01001098
:1000B0001D0100101D0100101D0100101D01001088
:1000C0001D0100101D0100101D0100101D01001078
:1000D0001D0100101D0100101D0100101D01001068
:1000E0001D0100101D0100101D0100101D01001058
:1000F0001D0100101D0100101D0100101D01001048
:100100001D0100101D0100101D0100101D01001037
:1001100000BE00BE00BE00BE00BE00BEEFF3058004
:10012000103800BEF2EB8871406100106061001071
:10013000A801001090A31AE7D3DEFFFF42012110AF
:10014000FF010000C8700000793512AB4FF00000CD
:100150002049086006C881F3088810474FF05040D6
:10016000006810B14FF00000F2E70FA40ECC002998
:1001700002D000F015F8F9E71749184A002000E00E
:1001800001C19142FCD1002080F30A8814498847BC
:10019000144988471449884700BEFDE701C901C2D8
:1001A0009A42FBD3704700BF60610010100100202D
:1001B000B01100200072001000000820000008208C
:1001C000007200100010082000100820000000003D
:1001D0007047000008ED00E0B01100204802022046
:1001E000DD39001019090010D5390010F8B500BF2D
:1001F00008B5034B1BB103490348AFF3008008BDAA
:1002000000000000D80102209C5D001070B5134D65
:100210002C68002C1BDB124E124B134D03EA4433A7
:100220004FF40042002130461D4305F011FC00232D
:100230006FF070420D480E4903600B60A0010D4B3A
:1002400000F1A040036046608260C56070BD01207F
:1002500003F038FE04462860DDE700BF18110020D7
:1002600000800020FDFF01FC411F0800D00102209A
:1002700018020220230020502DE9F8430424274DC2
:10028000274F284E002004F001FF814690B12968D5
:10029000072914D9244BA1F108001A681388528841
:1002A00002FB03F3984220D3204B1B688B4231D9C9
:1002B000013CE7D1BDE8F843002004F081BEC1F164
:1002C0000808C84528BFC84639440020424604F003
:1002D000BDFE2968336801440344804533602960CA
:1002E000E8D8B9EB0009D5D1E4E7A3EB0008C8458D
:1002F00028BFC8460E4B424619680144002004F04E
:10030000A5FE2968336801440344804533602960B1
:10031000CAD9CFE70022064B1A60CBE72C02022095
:1003200024020220380202201C1100203002022088
:10033000200202202DE9F0413C4B3D4A8CB03D4962
:100340003D4800241A6003F08DFC0123054602227B
:1003500021460094384803F01BFD0621022000F0DE
:10036000DDFD22460121022000F0F6FD4FF4803031
:100370004FF4F8314FF440234FF48038CDE90401B5
:10038000079406930DF1200C04ACEB1DEE0146EA38
:10039000033694E80F008CE80F00DFF8ACE0099614
:1003A00026F0F8579CE80F0047F0007784E80F002C
:1003B0000520CDF81C800597CDF818E001F016FD5A
:1003C00007EE100A9FED1D6AB8EE477ADFED1C6A52
:1003D000C7EE067A77EEA67ABCEEE77A17EE103A09
:1003E0009BB20BB307EE103AB8EE477ADFED156A11
:1003F00077EEC77A67EEA67AFCEEE77ACDED037A60
:100400009DF80C1009020C4E41EA03410491234669
:100410002A460021304603F001FD336843F0010312
:1004200033600CB0BDE8F0811946ECE71C110020E8
:10043000AC5F0010D05F00100000205020BCBE4C0C
:100440000000003B0000804300008C802DE9F0415B
:10045000654B05461B688CB0002B0BDB01214FF070
:10046000A0409A0101FA03F30244C0F86434D3684F
:100470005901FCD45D4C2368204623F0010323601E
:1004800003F06CFC6368D80503D4236A6368DB055A
:10049000FBD500244FF0FF32554B56491C60564B9C
:1004A0000C70564856491A60564E574B54220460F9
:1004B0000C70564821461C6005F0CAFA4FF4D2422F
:1004C0002146304605F0C4FA4FF4D2422146504846
:1004D00005F0BEFA4F4B504A1E605049504B0C601D
:1004E00014601D7035B9FFF725FF0CB0BDE8F04171
:1004F000FFF78CBE4B4B4C4A4C493C481A6003F00A
:10050000B1FB01230646022221460094374803F03E
:100510003FFC0621022000F001FD224601210220BD
:1005200000F01AFD4FF480304FF4F8314FF44023BF
:100530004FF48038CDE904010794069308AD04AC6C
:10054000F31DF70147EA033794E80F0085E80F0031
:10055000DFF8E8E0099727F0F85C95E80F004CF029
:10056000007C84E80F000520CDF81C80CDF814C075
:10057000CDF818E001F03AFC07EE100A9FED2C6A66
:10058000B8EE477ADFED2B6AC7EE067A77EEA67AE9
:10059000BCEEE77A17EE103A9BB21BB307EE103AA7
:1005A000B8EE477ADFED246A77EEC77A67EEA67A6F
:1005B000FCEEE77ACDED037A9DF80C1009020B4DA5
:1005C00041EA03410491234632460021284603F0C4
:1005D00025FC2B6843F001032B600CB0BDE8F04113
:1005E000FFF714BE1946EAE718110020000020505A
:1005F000C801022045020220101100201CFC01202D
:10060000420202200C2A0120CC01022074010220A7
:100610000C93012014110020200202202C02022041
:10062000410202201C110020A05F0010B85F0010E2
:100630008096984C0000003B0000804300008C80B6
:1006400030B50020D9B004F065FC08B959B030BD10
:10065000012200200DF1330104F068FC0128F5D1DE
:100660009DF83330423B312BF0D801A252F823F0F1
:10067000850800104D0600104D0600104D060010B4
:100680004D0600104D0600104D0600104D060010DE
:100690004D0600104D0600104D0600104D060010CE
:1006A0004D080010550800104D0600104D060010B2
:1006B0005D080010390700104D0600104D060010AF
:1006C0004D0600104D0600104D0600104D0600109E
:1006D0004D0600104D0600104D0600104D0600108E
:1006E0004D0600104D0600104D0600104D0600107E
:1006F000850800104D0600104D0600104D06001034
:100700004D0600104D0600104D0600104D0600105D
:100710004D0600104D0600104D0600104D0600104D
:100720004D080010550800104D0600104D06001031
:100730005D08001039070010614B1B68002B0BDBB4
:1007400001214FF0A0409A0101FA03F30244C0F8DE
:100750006434D3685801FCD400235A495A480A68C3
:100760005A4D22F001020A60594C5A4902682B7016
:1007700023600B6012B1584A03601360002004F03C
:100780001FFC642405E0C820002101F00BFA013CA5
:1007900009D000214FF0FF3003F0EEFD002004F0FF
:1007A00075FCFF28EFD94FF400434C4C4C484D49A1
:1007B00025684D4A046809681068CDE90845079125
:1007C0004A490A9309684A4B4A4C1B682468CDE998
:1007D00005104948049300684849494B09681B685B
:1007E000CDE9020401919B68464A4748147800937A
:1007F000464B4FF49671002C08BF0346444A0DA89F
:1008000003F0B8F80DA90246002004F01FFC0020F8
:1008100004F0D6FB322400214FF0FF3003F0ACFD92
:10082000C820002101F0BEF9013CF4D1254B5A68E3
:10083000D10503D41A6A5A68D205FBD5214A136838
:1008400043F001031360FFF7E1FCFFE60020FFF730
:10085000FDFDFBE60120FFF7F9FDF7E60023264A40
:10086000264813602149204A03600B601360214C25
:100870001F4D1C481A49194A2B60236003600B6006
:100880001360E3E60E4B1A68002A0ADB01234FF0DF
:10089000A040910193400144C0F86434CB685B01EF
:1008A000FCD41C490522002004F0D0FB002004F0F9
:1008B00087FB322001F08EF90021084601F014FB7D
:1008C00018110020000020502002022045020220C2
:1008D000C8010220180202202C020220D0010220AE
:1008E00024FC012020FC01201C020220FC29012004
:1008F000002A012010FC012014FC012038020220F3
:100900001C11002041020220A05D0010AC5D00100F
:10091000B45D00101C5E00102DE9804885B005F024
:100920006FF8192000F02CFB19234FF0010242EC64
:10093000443004F06BFD002241F221001146AE4C20
:1009400004F500750B044BBF82EA000613B233B204
:100950001646002BC0F2EE817600B3B236B2002EFE
:10096000C0F2E3815B009EB21BB2002BC0F2D881C3
:100970007600B3B236B2002EC0F2AF815B009EB2F9
:100980001BB2002BC0F2B0817600B3B236B2002E9B
:10099000C0F2B1815B009EB21BB2002BC0F2B281EB
:1009A000760024F8026F01F5807102F50072AC4206
:1009B00089B292B2C6D10023904ADFF888B2137090
:1009C000FFF7B8FCFFF722FCDFF87C92DFF87C82AF
:1009D000DFF87CA28A4B1B689B0103F1A0435B6894
:1009E000A3EB0B03C3F30E05864B1E68B5423FD045
:1009F0004FF4005410E053B95D2A08D182490A70BF
:100A0000824A13700123C8F8003089F80030B542DB
:100A100028D0013C00F0458199F80030711C012B71
:100A20001BF80620C1F30E066DD0022BE3D15D2A20
:100A300000F01081764A136801331360DAF8003051
:100A4000013B002BCAF80030E1DC4FF000026F4B95
:100A500089F800201A706F4AB542136803F1010348
:100A60001360D6D16C49AB1B0A689A4238BF0B6041
:100A7000644B1E60694B1B683BB1002004F034FAE4
:100A8000002800F07981FFF7F7FB00214FF0FF30DD
:100A900003F072FC614B1B683BB1002004F024FAA8
:100AA000002800F06681FFF7E7FB00214FF0FF30E0
:100AB00003F062FC524B1B689B0103F1A0439A6850
:100AC00012B96FF07042DA61FFF7BAFD01F00AF96E
:100AD0000346002900F0F1804FF47A72002305F0FC
:100AE0001FF90446002004F0FFF9002800F0EF8011
:100AF0004B4B1B68002B00F0228119234FF00102A1
:100B000042EC403066E7D8F800303F49CA54013320
:100B10004449022B0F68C8F8003057D0FA88934236
:100B2000FFF675AF354B1978374B5B78002940F0ED
:100B3000D28003F07F030193334BB7F800C01A440F
:100B400012F8023C12F801EC4EEA032E4FF6FF7346
:100B5000BCF1000F11D03449029401EB0C0011F8E4
:100B6000012F324C82EA132234F812201B029BB26E
:100B7000814283EA0203F2D1029C9E4514BF2C4AB3
:100B80002C4A1368013313602B4B019A1B68934264
:100B900068DB2A4A1268002A00F3F180019A0133C7
:100BA0009A4261D0244B1A60254A136801331360BE
:100BB0004FF00102154B1A700023C8F80030402393
:100BC000CAF80030022389F8003020E70B49097881
:100BD000002964D102F07F00B98881429EDC0B4B72
:100BE0001B78002B00F0BB80FB884033CAF8003034
:100BF000022389F800300AE7FA2701204102022087
:100C000018110020180202203000022042020220A7
:100C100020FC012024FC0120D0010220200202201F
:100C200014FC01201C11002031000220FC270120AF
:100C3000FC290120002A012010110020CC010220F3
:100C40001C0202200080002045020220C801022070
:100C50001CFC0120744B1A700123C8F8003089F87D
:100C60000030D4E6002B99DA704B019A1A607B8829
:100C70009A429DDA6E4B3A881868019F6D4907FBCE
:100C8000020004F04FFF6C49CB5D002B90D14FF078
:100C900001036A4ACB5513680133136088E7104695
:100CA0009AE7B542BFF4DEAE654905F500430A6830
:100CB0009B1B9A4238BF0B60DAE6624AA2FB033004
:100CC0008409002004F010F900287FF411AF1923E3
:100CD00040EC40307EE601932EE780EA460633B2D0
:100CE000002BB6B2BFF650AE80EA43031EB2002E10
:100CF0009BB2BFF64FAE80EA460633B2002BB6B2C7
:100D0000BFF64EAE80EA430324F8023F01F580713E
:100D100002F50072A54289B292B27FF413AE4AE6A0
:100D200080EA43031EB29BB225E680EA460633B250
:100D3000B6B21AE680EA43031EB29BB20FE64249FE
:100D40000B68E31AF92B7FF645AE404A137883F01F
:100D500001031370192243EC40200C603AE65D2A2F
:100D600009BF314B89F800301A700123C8F80030F0
:100D70004DE6374B186098E6354B186085E63549E7
:100D80002B480A68006802F1010EC1F800E0304902
:100D900002900968B9B130490A6801320A6000213D
:100DA000BA882548039304F053FE3A88B7F802C086
:100DB00000210CFB02F2029804F04AFE00221F4BB5
:100DC0001A60039BEAE6224A1060244A4EF6FE505F
:100DD00011600A462249088010464FEA1E226EF32F
:100DE000070062F30F206CF31740039008467A88DF
:100DF000CA800CFB02F203994FEA1C2C6CF31F61B2
:100E0000C0F80210174908320A60174902980A68A8
:100E100001320A60154A90420CBF154A134A114626
:100E20000292034A1160BAE730000220101100203C
:100E3000141100203200022074010220CC01022093
:100E4000D0010220D34D621028000220440202206B
:100E50002002022018FC012010FC01202C0202209C
:100E6000240202203002022014FC01200C2A01205E
:100E70000C93012031B1002303480449044A036064
:100E80000B601360704700BF3802022014FC012081
:100E900010FC0120704700BF004870474C600010F4
:100EA000004870470060001038B548B940F2094367
:100EB0004FF4417C174D6B801648A5F800C038BD33
:100EC000042825D8144B134D53F82040204604F035
:100ED0009FFEC0B21F28864628BF4FF01F0E0EF19E
:100EE000010C5FFA8CFC4FEA4C0C4CF4407C00285F
:100EF000E2D02A460023601E013310F8011FDBB246
:100F00009E4522F8021FF7D80248A5F800C0D6E790
:100F1000002038BDFC250120E85F001010B44FF41C
:100F200080740C4B53F8202003EB8003C00082F048
:100F3000400200F1804003F5805C02F0C00200F541
:100F4000203003F54053CCF8002041601C605DF870
:100F5000044B70470480034010B4084CC90041EAB8
:100F6000820154F8202004EB8003514003F58053A4
:100F700001F00C015DF8044B1960704704800340D8
:100F800030B44FF0000343EC440043EC400005252F
:100F90004FF480740B4BC20053F8201003EB800019
:100FA00081F0400102F1804303F5203301F0C002DB
:100FB00000F5805100F540500A605D60046030BC6F
:100FC000704700BF048003400FB400B583B0049C99
:100FD000074802F029FE3CB105A92046019102F024
:100FE000DFFC044802F020FE012002F0F1FC00BF0B
:100FF000605E0010705E0010EFF3108072B6064B5A
:10100000D3E8CF1F01220029FAD1C3E8412F0029DC
:10101000F6D1BFF35F8F7047472601200023034AB4
:10102000C2E88F3F80F31088704700BF4726012039
:1010300070B58646EFF3108572B6124CD4E8CF6FC8
:101040000120002EFAD1C4E8460F002EF6D1BFF3DE
:101050005F8F4FF0010CC80801F007030CFA03F38F
:101060001EF800C01CEA030608D14CEA030C0EF877
:1010700000C0C4E88F6F85F3108870BD1046FFF77D
:10108000A3FF00BF47260120F8B5EFF3108572B625
:10109000234CD4E8CF7F0126002FFAD1C4E8476F54
:1010A000002FF6D1BFF35F8F9A4227D80126D708C9
:1010B00010F807E002F0070C06FA0CFC1EEA0C0F11
:1010C00000EBD2070DD125E04FEAD20E10F80EE06A
:1010D00002F0070C06FA0CFC1EEA0C0F00EBD2071C
:1010E00018D001329342EFD24FF0FF300023C4E812
:1010F0008F3F85F31088984207DBF8BD0023C4E8D2
:101100008F3F85F310884FF0FF300029F5D0069807
:10111000FFF75AFF4EEA0C0E104687F800E0E5E7AD
:1011200047260120044A1078431CDBB2182B28BF45
:1011300010231370704700BF2011002010B5054C1C
:1011400082B001461F23182200940348FFF79CFF3A
:1011500002B010BD745E0010CC2701204FF0E022D9
:10116000936843F000539360704700BF0021044B25
:1011700003F12002C3E88F1F01339342FAD1704775
:101180003C2601204FF0E0234FF08032C3F80024CA
:10119000C3F80424C3F80824C3F80C24C3F81024AB
:1011A000C3F81424C3F81824C3F81C24C3F820245B
:1011B000C3F82424C3F82824C3F82C24C3F830240B
:1011C000704700BF012300F01F029340400941B166
:1011D000800000F1604000F56140C0F8803103609C
:1011E0007047024A203042F82030704700E100E0AA
:1011F000F8B50D46EFF3108772B6124ED6E8CF2F32
:101200000123002AFAD1C6E8423F002AF6D1BFF3F3
:101210005F8F0D4B00F110049B680C4A53F824308B
:10122000934203D0994201D000F09CFE064B9B688C
:1012300043F82450BFF35F8F0023C6E88F3F87F346
:101240001088F8BD4526012000ED00E01D010010CA
:101250002DE9F04F81468B46164683B0EFF310839D
:1012600072B6DFF8D0A10093DAE8CF1F012300297E
:10127000FAD1CAE8413F0029F6D1BFF35F8F664B30
:1012800093F90040002CC0F2A080644D04EB4407A9
:1012900005EB870898F8061009F110091970604BE2
:1012A000BF009B6853F829006300411B2F292FD9E9
:1012B0005C49884240F0A4801C445B4B02372F44B9
:1012C000043BDB1BC3F34A036FEAC3434FF42141E2
:1012D0006FEAD34325F8241005EB840463804BF6B2
:1012E0000153A380FF2348F00100E671C4F808B061
:1012F000A3714B4B9B6843F82900BFF35F8F00231A
:10130000CAE88F3F009B83F3108803B0BDE8F08FDD
:1013100020F0010E9EF80710B1422ED84FF4214361
:10132000EB53414BB91C2944043B04375B1A2F444F
:10133000AEF104013D4CC91BC1F34A012143A8F899
:101340000410C3F34A033A492343A8F802304AF68B
:10135000AA2073465B1B5B415843000D88F8076069
:1013600088F80600C8F808B048F00100CEF8001070
:10137000BFE7D179B1422ED996469EF906C00CEB53
:101380004C02BCF1000F05EB8202F2DA4BF6015180
:101390000EF10402A8F10407BF1AC7F34A076FEA67
:1013A000C7476FEAD7478EF8064003EB0408204C86
:1013B00005EB8803AEF8047045F82840998083F85F
:1013C00006C0DE71C3F808B093E700F0CBFD124B06
:1013D00093F9004059E7724632F8041F490514D4C6
:1013E0004915023102EB410101916FF00701C91B60
:1013F000019F491B3944C1F34A0141F46041C9E7E7
:10140000019300F0AFFD019B56E701F5FF1101F5D7
:10141000FF511F31E4E700BF4302022024110020E6
:1014200000ED00E01D0100105411002000E0FFFF5E
:101430000148804745260120F0B5EFF30585EDB260
:10144000EFF3108C72B62649D1E8CF2F0123002A82
:10145000FAD1C1E8423F002AF6D1BFF35F8F214E97
:1014600040F0010EB4684AF6AA2354F825701E4ACB
:101470000446A41A644163431B0D77455BB21BD03D
:1014800092F906409C421CD092F912409C4223D013
:1014900092F91E409C4221D092F92A409C4208BFFA
:1014A00003240FD0114A0024157813708571C1E808
:1014B0008F4F8CF31088F0BDB2680D4C42F8254078
:1014C000F0E7002404EB440402EB8402FF2494714F
:1014D0004BF601549480E5E70124F3E70224F1E799
:1014E0004526012000ED00E02411002043020220E7
:1014F0001D010010014B0B44036070473C26012086
:1015000070B5104C104DAC420ED2FF26236863B16B
:10151000FFF708FE01462046FFF7ECFFA680BFF369
:101520005F8F0834AC42F1D370BDFFF7FBFD01467D
:101530002046FFF7DFFF2671BFF35F8F0834AC4210
:10154000E4D370BDA8110020B011002010B50446EE
:10155000FFF7E8FD01462046FFF7CCFFFF2323718C
:10156000BFF35F8F10BD00BF10B504460120FFF729
:10157000E5FD034B03442360BFF35F8F10BD00BF45
:101580003C2601200D4B1A68EFF3108172B6D2E8A9
:10159000CFCF0120BCF1000FF9D1C2E84C0FBCF154
:1015A000000FF4D1BFF35F8F00221B68C3E88F2FB9
:1015B00081F3108840BF00200021704734020220D0
:1015C0002DE9F04F2DED028B85B0EFF30583DBB2F3
:1015D000103B9A0818BF01224FF0010103F00300ED
:1015E00018BFAB4DAB4B08BFAB4D00EB820201FA0D
:1015F00000FB53F8226005F541539FEDA38B01904A
:10160000C3F804B0CDF800B02AE0B388180440F164
:101610008C80B379002B40F0D580B6F908100029F2
:10162000C0F21581736901EB410103EBC103D3E9FA
:101630000247B7F1FF3F08BFB4F1FF3F09D0019B5C
:1016400005EB8301AB6A0A69D21AE31A934238BFE9
:101650000C61284600F03EFBA042B941C0F2F78081
:10166000B6F90840009B002CEB63CEDBD6F8149053
:1016700004EB440A284609EBCA07D7E902B800F090
:1016800029FB584571EB0801BFDBB8F1000FC0F230
:10169000C180D7E90431814A934200F0EA807A8818
:1016A000B6F9080092B242EA0040984702460B465B
:1016B00052EA030100F0AE80002B80F2CE80BBEB3B
:1016C000020B68EB030839F93A30C7E902B8002B7E
:1016D0009BDB716903EB430201EBC202D2E90270AA
:1016E000BB4578EB000C4FEA43028EDBB4462CF886
:1016F000083F0BE031F93230F446002B0DDB03EBF1
:10170000430001EBC0005A00D0E90270BB451A4407
:1017100078EB000001EBC20EECDA29F83A30ACF8B5
:101720000040B38818043FF574AF3369EFF31082BB
:1017300072B6D3E8CF0F01210028FAD1C3E8401FC9
:101740000028F6D1BFF35F8F4FF6FF74B0880023F7
:10175000316900B2B480C1E88F3F82F310889842AB
:10176000FFF657AF0746A946746906F1080807EB6C
:10177000470E04EBCE03D3E90250B6F90830C44655
:10178000002BA8BFB34605DA0FE034F93A3094468F
:10179000002B09DB03EB430A04EBCA02D2E9026126
:1017A000B54270EB0101F0DA5E46ACF8007034F936
:1017B0003E7024F83E30002FD9DAB3794D46002B25
:1017C0003FF42BAF0023B371B6F9083006F10808D7
:1017D000591C3CD01946776903E080465A1C3FF4F7
:1017E0001EAF03EB430207EBC200B0F802C01C4679
:1017F0001CF4004F9E4637F93230EED08C4280ED1B
:10180000028B05D0A8F80030318927F832103481D6
:101810007146E3E739F83A3033813369EFF31082E8
:1018200072B6D3E8CF0F01210028FAD1C3E8401FD8
:101830000028F6D1BFF35F8F7388316929F83A30F9
:1018400000237480C1E88F3F82F31088DDE640BF3B
:1018500005B0BDEC028BBDE8F08F2846CDE9022330
:1018600000F038FA029A039B10EB020B43EB0108DD
:1018700029E708460B69029198470028CAD00299C7
:10188000D1E9002314E700BFFFFFFFFFFFFFFFFFC9
:1018900000800B40F001022000000B40C115001039
:1018A0002DE9F84F364C25692DB1BDE8F84F0A21D6
:1018B0003448FFF71FBEDFF8E4800321404600F004
:1018C000F7F90326C4F80C80FFF72CFC4FF0504CBE
:1018D0002D4B267003442361DCF800300F21637028
:1018E000636961801D834FF00405A3F878504FF0C1
:1018F0000505A3F890504FF00605A3F8A8504FF047
:1019000007050E214FF6FF7208274FF00A0EA3F8C5
:10191000C0504FF001094FF00C0C4FF0020B4FF08C
:10192000090A0D204FF00B05A3F868111749A28092
:10193000A3F808E1A160A3F848B0A3F8F0A0A3F8C9
:101940002051A3F838C1A3F85001A3F83090A3F8B0
:101950006060A3F8D8701A800D4B3046C8F820702C
:101960000C49DC60FFF744FC49463046FFF72AFC8F
:10197000094B0A211F640348BDE8F84FFFF7BABDC1
:101980006C110020340202203C260120FFFF1000D1
:10199000F0010220C115001000200B4000000B4098
:1019A0000146F0B50069EFF3108772B6D0E8CF5F5B
:1019B0000124002DFAD1C0E8454F002DF6D1BFF328
:1019C0005F8FB1F902E04C690EEB4E0CBEF1000FD7
:1019D0004FEACC0504EBCC0C3DDB605B0026488075
:1019E0000869C0E88F6F87F31088BCF80200CCE963
:1019F00002230130C0F30E00012838BF0120059BEF
:101A0000ACF80200CCF81030069B40EA0E40CCF84F
:101A100014300B69EFF3108272B6D3E8CFCF0127F1
:101A2000BCF1000FF9D1C3E84C7FBCF1000FF4D139
:101A3000BFF35F8F8B886353A1F804E00B69C3E8A1
:101A40008F6F82F310880122CB68097803F5015368
:101A50008A405A60F0BD00230A69C2E88F3F87F3CD
:101A600010884FF0FF30F0BD03464089B0EB214FA6
:101A700037DD58690A1402EB420210B500EBC200D0
:101A80001C69EFF3108C72B6D4E8CFEF0122BEF1DF
:101A9000000FF9D1C4E84E2FBEF1000FF4D1BFF30F
:101AA0005F8F428889B292B28A4207D000221B69B6
:101AB000C3E88F2F8CF31088002010BD42F4004241
:101AC00042800121002218699971C0E88F2F8CF3A0
:101AD00010881C78DA68084602F50153A140596065
:101AE00010BD0020704700BF2DE9F041861F41F175
:101AF000FF35B04271EB050338BF002682B038BF16
:101B0000354604460F4600F0EDF8301A65EB010348
:101B1000012873F1000306DA2046394602B0BDE819
:101B2000F04100F0E9B800F0DDF8864265EB010114
:101B300000290ADB0021174B3246009316482B463A
:101B40000191FFF72DFF0028E6DB4FF0000C134852
:101B5000134A436A9D4204D8816AB142DCD29D4255
:101B6000DAD11368EFF3108172B6D3E8CF8F5FF04C
:101B7000010EB8F1000FF8D1C3E848EFB8F1000F3B
:101B8000F3D1BFF35F8F1368C3E88FCF81F3108861
:101B900020BFDEE7851500106C11002000000B400F
:101BA0003402022038B504460D4600F09BF84FF091
:101BB000FF326FF00043201845EB0101824273EBC6
:101BC000010438BF1946BDE8384038BF1046FFF75A
:101BD0008BBF00BF10B5044600F084F84FF47A7351
:101BE0004FF0FF3C6FF00042E4FB0301BDE8104002
:101BF000844572EB01033CBF60461146FFF774BF9A
:101C0000F0B506460D4683B0EFF30584E4B2002C30
:101C100035D1244F3A78F96804328B6A51F8222082
:101C2000D21AC31A934207D320BF1F4B586AA84247
:101C30001FD2002003B0F0BD00F054F8864265EBDF
:101C40000101002911DB194B3846CDE90034324639
:101C50002B46FFF7A5FE011E07DD134B5A6AAA4269
:101C600019D220BF0F48FFF7FFFE0F4B586AA8425A
:101C7000DFD39B6A9E4209D8012003B0F0BD0A4B16
:101C8000586A8842D5D39B6AB342F5D2401B18BF2D
:101C9000012003B0F0BD9B6A9E42E3D9AA42E1D184
:101CA000DFE700BF6C11002000000B40851500101D
:101CB00010B4054B054C064AA04214BF1846581CE8
:101CC0005DF8044BFFF7B4B9D027012000800B402A
:101CD000905E00100346416A0A46986A596A8A4231
:101CE000FAD17047034B596A0A46986A596A914279
:101CF000FAD1704700000B40074A536A9942FCD85A
:101D0000994207D1044B02E05A6A914202D19A6A81
:101D10008242F9D3704700BF00000B4000EB400C3B
:101D20004FEA8C0C0CF1804C0CF5803CF0B516465B
:101D3000DCF80420051FB2F5803F38BF4FF4803235
:101D4000EDB238BFCCF80420012D2AD94FF400673A
:101D5000254C0CF54052176054F82020B2B9DCF83D
:101D60000020012D82EA461202F0E0020CF58056B6
:101D700032602AD94FF4006144F820304FF48033A8
:101D80000CF500521160CCF80430F0BD6769B7FB68
:101D9000F2FE0EF1010E0EEB4E0EBEF1030EFCD262
:101DA000DDE70129D2D103240CF540521460DCF8A0
:101DB0000820D207FBD5DCF800200B4C82EA461243
:101DC00002F0E0020CF5805632600122DCF800508F
:101DD0004D4005F00305356002FA01F1DCF80820FA
:101DE0000A42FBD0C6E700BFD4270120014B53F8BD
:101DF00020007047D427012070B4039D04682D0390
:101E000045EA03451B4B002CB3FBF1F3B2FBF3F6A1
:101E10001FDB194A194B904214BF4FF480424FF414
:101E20000042174C1A6003F580531A60A36832EA27
:101E30000303FBD1212200F5405304330160866087
:101E40001A600268002AFCDA0822C5601A6070BCB9
:101E50007047036803F03F038B42DAD18368C3F312
:101E60000B03B342D5D1C36803F4EE23AB42D0D108
:101E7000EDE700BF001BB7000080054000200240D6
:101E800000000240012300EB4000800000F1804090
:101E900000F5841041600360704700BF002370B5F7
:101EA000DB8A04460D46002242E800F2520254BF8B
:101EB0001021042144F25220984786462B462246A0
:101EC000F446BDE870400A214FF48170604700BFBE
:101ED0000023DB8A002242E800F2520201D41021E2
:101EE00018470421184700BF08B5034608462BB120
:101EF00093FAA3F3B3FA83F341F020001946FFF7F6
:101F0000CDFF00BF034AD2F82838002BFBD0BFF327
:101F10005F8F704700000E400021044B044ABFF35E
:101F20005F8F43F8041B9342F9D170470C080E40B1
:101F30002C080E4010B42F204FF42A64054A064B9B
:101F400006491460D06019605368002BFCDA5DF814
:101F5000044B70470080044000A0044000B0FA0029
:101F6000704700BF08B50148FFF72EF8B45E0010B7
:101F700038B5054C054DAC4204D254F8043B9847A3
:101F8000AC42FAD338BD00BF505D0010905D001028
:101F900010B40748074C084B084A094904601A6006
:101FA0008B6832EA0303FBD15DF8044B704700BF36
:101FB000002002407F3BEFEF00300240F6FFF303CA
:101FC00000000240044BDB6CB3F5004F03D14FF42B
:101FD0008022024BDA64704700001150002011503B
:101FE0004FF0E022044BD2F8881D0B43C2F8883D25
:101FF00010EE3004704700BF030330006FF0604103
:10200000044B054A19609368DB4333F06043FAD10F
:10201000704700BF003002400000024010B545F29A
:102020005320FFF755FFBDE8104003460420184732
:1020300010B545F25320FFF74BFFBDE810400346B3
:1020400001201847FFF792B810B5054B054C4FF427
:1020500088721846A16803F065FDA06010BD00BF3E
:102060000000002000ED00E0002370B52B4C82B092
:10207000C4F88430FFF75EFF0122294BDA63636CFA
:10208000012BFCD10321264A244B11639C6B012CAC
:10209000FCD10226052521460523224A2248009626
:1020A000FFF7AAFE21462B46204A21480095FFF75C
:1020B000A3FE0022042031461E4BFFF72FFE2146CF
:1020C000284600221C4BFFF729FE0022082011465B
:1020D0001A4BFFF723FE002209201146174BFFF78A
:1020E0001DFE002206201146134BFFF717FE0022AB
:1020F000114B07201146FFF711FE0420FFF776FE73
:1021000000240F4BA3FB0035AD0CE0B2294601348F
:10211000FFF7B8FE062CF8D102B070BD00000140F8
:1021200000300140002F685900000540008C8647B0
:1021300000800540001BB70080D1F008006CDC0275
:1021400083DE1B4386B003B451FC0804CDE90201D1
:1021500051FC0904CDE9040151EC0A04CDE9060162
:1021600003BCF047BDE800504EEC00C4BDE8005091
:102170004EEC01C4BDE800504EEC02C400BD0000AE
:1021800000B5FFF7DFFF02E010FE30F4F8D441ECB9
:10219000100443EC112400EE010410EE010480EE63
:1021A000200451EC1004704700B5FFF7CBFF02E0AC
:1021B00010FE30F4F8D441EC100443EC112400EE8E
:1021C000010410EE210480EE200451EC300470472D
:1021D00000B5FFF7B7FF02E010FE30F4F8D410B5F9
:1021E00041EC100443EC112451EC040453EC05249D
:1021F000A0FB024C5FF0000EE0FB03CEE1FB02CE41
:102200004CEC20440024E1FB03E444EC30E480EE99
:10221000200451EC5004BDE81040704700B5FFF7B2
:1022200091FF02E010FE30F4F8D441EC100443ECCE
:10223000112451EC2104A0FB01126FEA820252FB2F
:10224000100052FB12F252FB1000A0EBD07C53ECBA
:1022500004245CFB13F153EC1524A1FB022001FBC9
:10226000030053EC4424A2EB000050FB1CF24FEAA5
:10227000111312EB017043EBE27140EA515020EA76
:10228000915020F0070053EC7524A0FB023C53EC66
:10229000752400FB03CC01FB02CC53EC0424ACEB13
:1022A000824C40EA5C70A0F1010041EC400480EEF9
:1022B000200451EC7004704700B5FFF743FF02E0C3
:1022C00010FE30F4F8D440EC700400EE010410EE7F
:1022D000210480EE200451EC3004704700B5FFF774
:1022E00031FF02E010FE30F4F8D440EC600400EE60
:1022F000010410EE210480EE200451EC30047047FC
:1023000000B5FFF71FFF02E010FE30F4F8D441ECF7
:10231000800400EE010410EE010480EE400410EE93
:102320001304704700B5FFF70DFF02E010FE30F414
:10233000F8D441EC800400EE010410EE010480EEBC
:10234000400410EE3304704700B5FFF7FBFE02E0D7
:1023500010FE30F4F8D441EC100443EC112400EEEC
:10236000010410EE3004C0F30070704700B5FFF7B1
:10237000E9FE02E010FE30F4F8D443EC102441EC06
:10238000110400EE010410EE30F48CBF0120002097
:10239000704700BF00B5FFF7D5FE02E010FE30F435
:1023A000F8D441EC100443EC112400EE010410EECB
:1023B00030F42CBF01200020704700BF00B5FFF7AC
:1023C000C1FE02E010FE30F4F8D441EC100443ECFE
:1023D000112400EE010410EE30F48CBF0120002027
:1023E000704700BF9A4238BF88547047704700BF9B
:1023F0002DE9F04F83B09946DDE90DAB0F9B884680
:1024000011469A07074616D1DA453AD20C460D46D0
:10241000ABEB0A060E4422464B46414620200134CF
:10242000B847B442F7D12946BAF1000F08D1204687
:1024300003B0BDE8F08F0C46BAF1000F10D00E4685
:1024400055460C9B2E449A440191721B4B46013D0C
:1024500041461AF8010D3446B847002DF5D10199CF
:102460000F9B9B07E3D5651AAB45E0D922464B4647
:10247000414620200135B8475D4504F10104F5D3FC
:10248000D5E7BAF1000FDAD10C46D0E72DE9F04FCD
:102490000F9FDDF824E017F0020F0A9C9DF82C90A6
:1024A0000E9DDDE90C8629D1002D6FD1B44225D2D5
:1024B000202C07F0010B00F0128104F1FF3C4FF0DB
:1024C000300AF44401E0202C7AD00134A6420CF802
:1024D00001AFF8D8BBF1000F10D0AC420ED2202CC7
:1024E00074D004F1FF3C4FF0300AF44401E0202C9A
:1024F00029D00134AC420CF801AFF8D117F0100F1D
:102500003AD017F4806F28D11CBBB8F1100F00F03F
:10251000CA80B8F1020F00F0D48030248EF8004059
:102520000124B9F1000F67D17E0740F1AA802B2664
:102530000EF804600134CDE90B57CDE909E4BDE89C
:10254000F04FFFF755BFFC0640F189807C0535D47C
:102550002024A6426AD0AC4268D0B8F1100F00F037
:102560008780B8F1020F5AD0202CE4D026460134DF
:102570004FF0300C0EF806C0202CD2D1CDE90B570D
:10258000CDE909E4BDE8F04FFFF732BF17F0010BCA
:102590003ED0B9F1000F47D117F00C0F44D1B4422F
:1025A0009BD2202C89D1202D10D8FC0657D57C0534
:1025B00055D4202E00F0B980202D10D02024CCE757
:1025C000BBF1000F00F0A580202DBCD9FC0646D53C
:1025D0007C0544D4202E00F0A880202D3FD12C462D
:1025E0001F26B8F1100F7FD0B8F1020FC0D14FF005
:1025F000620C0EF806C0B7E72D260EF80460013411
:10260000CDE90B57CDE909E4BDE8F04FFFF7F0BE87
:10261000B442BFF473AF202C7FF44FAFD6E7202C29
:1026200089D026460134E2E7013DB8E7661ED8D1DD
:10263000B8F1100F64D0B8F1020F7FF46EAF6226CC
:102640008EF80060302644468EF80160B9F1000F24
:102650003FF46AAFD0E7B8F1100F7FF46CAF2024DD
:10266000CDE90B57CDE909E4BDE8F04FFFF7C0BE57
:10267000BE060ED4202CF2D078260EF80460013469
:1026800072E73E077FF557AF20260EF8046001344D
:1026900051E7202CE3D04FF0580C0EEB040686F8DF
:1026A00000C0013460E7BE0617D558248EF80040FC
:1026B00030248EF801400224B9F1000F3FF434AF0A
:1026C0009AE762248EF8004030248EF801400224FC
:1026D000B9F1000F3FF428AF8EE77824F2E7BBF1A1
:1026E000000F7FF462AF71E717F0200F0CBF4FF0BF
:1026F000780C4FF0580CA61E0EF806C0013C35E7CA
:10270000BC06EAD558248EF8004030248EF80140EB
:10271000DDE717F0100F3FF40EAF17F4806F9AD17A
:10272000202E7FF418AF1F265BE734461F2658E79C
:1027300000B9704701F036BA2DE9F04F9FB09DED1A
:10274000287BDDE92AA558EC177B83461E460D91B0
:10275000109243463A46384641468DED087B2C9C04
:10276000FFF7F6FD002840F0D880384641464FF08C
:10277000FF32754BFFF726FE002840F0CE8038462A
:1027800041464FF0FF326FF48013FFF7F3FD00284E
:1027900040F0C380DDE90878002238464146002336
:1027A000FFF7E8FD002840F0C081CDE90A78DDE9B7
:1027B0000A2390461F4614F4806308BF4FF0060AB0
:1027C000139304F4006258EA0703119240F0C080AA
:1027D000002A00F0A2819FED5A7B00278DED0E7B31
:1027E0004FF00009BA45CCBFAAEB070A4FF0000A28
:1027F0004F46C8BF0AF1FF3A44F480644D4594BF88
:102800004FF00008A5EB090814F00203119304D05F
:10281000B9F1000F18BF4FF000083FB1DDE90A0120
:10282000DDE90E23FFF7FEFCCDE90A01DDE9080131
:1028300000220023FFF79EFD30B1DDE90A010246C8
:1028400001F10043CDE90A239DED0A7BCDE902A801
:10285000DDF834A024F4006304938DED007B33464F
:1028600051465846109A00F097F98046B9F1000F8A
:102870004FD014F0200F024600F1010433460CBF84
:10288000652045205146D84709F1FF3087EAE77CAB
:102890000DF1580900224B46DFF8B080ACEBE77C25
:1028A0004FEAD77E01E0202A10D0E246A8FB0C7147
:1028B000C90801EB8107ACEB47073037BAF1090FC4
:1028C0008C4602F1010203F8017BECD80523059048
:1028D000069300200A230D9FCDE90330CDE9012E98
:1028E0003346224639465846CDF80090FFF7CEFDD4
:1028F000119B80466BB1109BC41AA54209D9424670
:102900003346394620200134D847A54208F1010852
:10291000F5D840461FB0BDE8F08F9DED087B3346EB
:102920005846109A0D998DED287BCDE92B54CDF8A2
:10293000A8A01FB0BDE8F04F00F02EB9AFF30080A3
:102940000000000000000000FFFFEF7FCDCCCCCCEA
:10295000C7F30A50A0F2FF30FFF7B2FC8AA3D3E915
:102960000023FFF739FC8AA3D3E90023FFF70CFC0F
:10297000C7F31307CDE90E0147F07F51404600220F
:102980007B4B41F44011FFF713FC6BA3D3E9002309
:10299000FFF722FC02460B46DDE90E01FFF7F4FBD0
:1029A000FFF7B2FC0746FFF78BFC65A3D3E90023D2
:1029B00080468946FFF710FC00226E4BFFF7E4FBD0
:1029C000FFF7A2FC03464946404612935EA3D3E9B3
:1029D0000023FFF701FC804612988946FFF770FC40
:1029E0005BA3D3E90023FFF7F7FB02460B46404603
:1029F0004946FFF7DDFB02460B4680468946FFF756
:102A0000EBFB42464B46CDE90E0140464946FFF7F7
:102A1000BBFB0022CDE91401DDE90E01564BFFF7A7
:102A200001FC0022554BFFF7AFFB02460B46DDE9E8
:102A30000E01FFF7F7FB0022514BFFF7A5FB024603
:102A40000B46DDE90E01FFF7EDFB42464B468046A3
:102A5000894600204FF08041FFF7AAFB02460B4653
:102A600040464946FFF790FB02460B46DDE914015C
:102A7000FFF7D8FB0022434BFFF786FB129B002297
:102A800003F2FF3C4FEA0C53FFF7A6FB8046894652
:102A9000DDE90A0142464B46CDE90E89FFF76AFCA3
:102AA00068BB4346494607F16302C62A119A8CBFA8
:102AB0004FF005094FF00409002A3FF49FAE0B4385
:102AC0003FF48EAEDDE90A0123A3D3E90023FFF72B
:102AD00065FC48B1DDE90A0121A3D3E90023FFF732
:102AE00049FC00287FF47CAEBAF1000F3FF486AEBB
:102AF000139B002B3FF482AE0AF1FF3A7EE60022E0
:102B00001E4B40464946FFF78DFB0A4601460346E9
:102B1000CDE90E12013F1146C5E79FED137B174625
:102B20004FF004098DED0E7B68E608F100430A972B
:102B30000B933CE6AFF3008061436F63A787D23FFE
:102B400071A379094F930A401655B5BBB16B02408A
:102B5000EF39FAFE422EE63F2D431CEBE2361A3FD8
:102B60000000000080842E410000000000000000F2
:102B70000000F83F0000E03F00002C40000024402F
:102B8000000018400000F03FFB799F501344D33FF2
:102B9000B3C8608B288AC63F2DE9F04F97B0DDE9B6
:102BA0002089CDE90401DDE9224BCDE90623404629
:102BB00042464B464946DDF890A0FFF7C9FB002886
:102BC00040F0C581404649464FF0FF326FF4801314
:102BD000FFF7D0FB002840F01D81404649464FF0EA
:102BE000FF32C14BFFF7EEFB002840F0E380B8A3B3
:102BF000D3E9002340464946FFF7E4FB002840F0B4
:102C0000CB80B5A3D3E9002340464946FFF7B2FB8A
:102C1000002840F0C1804046494600220023FFF7CB
:102C2000A9FB002840F0E0801AF480650D9000F0C8
:102C3000E980092C40F296810EAB1A460C933021A4
:102C40000023A4F109050133202B02F8011BA4EB9A
:102C5000030600F03A81AB42F5D19FED9D7B8DEDEF
:102C6000087B49464046FFF74FFB0446FFF728FB29
:102C700002460B4640464946FFF79AFADDE908232B
:102C8000FFF7AAFA02460B46CDE90A23FFF74EFBEF
:102C90000746FFF727FB02460B46DDE90A01FFF76F
:102CA00087FA02460B46CDE90A2300228F4BFFF735
:102CB00089FB002800F0DB8001373846FFF712FB64
:102CC000DDE90823FFF76AFB08B100270134002E75
:102CD00040F0B1802046FFF7F3FA02460B4640462B
:102CE0004946FFF765FA0022804B06460F46FFF77C
:102CF00041FB40B93046394600227C4BFFF762FB6E
:102D0000002800F015810C9B691E7948194410E0D9
:102D100080FB0462C3EBA20303EB8302A4EB420437
:102D200004F1300201351C4601F8012F002B00F0A0
:102D3000AB80202D4FEAE473EAD10AF00303012BA4
:102D40001CD1BBF1000F19D00D9B002B40F0F98076
:102D50001AF00C0F40F0F580AB4540F2D380202DE7
:102D60000BD030220C996B1E0B4401355D4503F8E6
:102D7000012F00F08D80202DF7D12025DDE90623DD
:102D8000DDE904010C9CCDE902BA01950094FFF73E
:102D90002FFB17B0BDE8F08FCDE92089DDE90623D0
:102DA000DDE90401CDE923BA229417B0BDE8F04F64
:102DB000FFF7C2BC4F4DCDF88CA00AF0040ABAF15F
:102DC000000F4D4C18BF2C46DDE90623DDE9040158
:102DD00020940CBF03240424CDF888B0219417B0AC
:102DE000BDE8F04FFFF704BB4B46424600200021F0
:102DF000FFF7DEF901231AF48065804689460D93BA
:102E00007FF417AF9FED367B0EAB06268DED087B6A
:102E10000C9326E70424DDE90623DDE90401374DA0
:102E2000CDF88CA0CDF888B02095219417B0BDE8DE
:102E3000F04FFFF7DDBA0C9B681EDFF8C4C01844E2
:102E40000DE0ACFB0721C90801EB8102A7EB4202B0
:102E50003032092F00F8012F27D90F461D46202DAB
:102E600005F1010306F1FF36EBD120254BE70022E7
:102E7000DDE90A011D4BFFF77DFA00287FF427AF3B
:102E8000002F5AD1013722E70AF00303012B75D036
:102E9000202D3FF473AF0D9BBBB32D2205F15803DA
:102EA0006B4403F8202C013568E7202BDDD0AEB34E
:102EB0000C9A1E441544302201E0B3422ED0013357
:102EC000202B05F8012FF8D1CFE71D46C5E600BF3E
:102ED0000000000065CDCD410000000065CDCDC1F2
:102EE0000000000080842E41FFFFEF7F0000E03FE4
:102EF00067666666085F0010105F0010185F0010BC
:102F0000CDCCCCCC202D3FF439AF1AF0040F0DD12D
:102F10001AF0080F3FF432AF2022BFE72E2103F151
:102F200058026A4402F8201C5D1CECE62B22B5E72F
:102F3000E3077FF5E8AE0134E5E6FA077FF5C7AEB3
:102F4000A0E70BF1FF3BAB453FF609AFA0E7032439
:102F5000DDE90623DDE904010A4DCDF88CA0CDF8AA
:102F600088B061E7084B264603EBC40393ED007B72
:102F70000EAB8DED087B00250C9372E6BBF1000FC4
:102F800086D0E1E6145F0010B86000102DE9F04F24
:102F90009A469BB0249C964D0B94964C0B1E18BFE2
:102FA000834625609AF80000934C0A9308BFA34615
:102FB0000992002800F0BC824FF000090AE04A465E
:102FC000099B0A9909F10109D8479AF800000028DD
:102FD00000F0CE8025280AF1010AF0D100235246E4
:102FE00012F8010BA0F1200110290AD8DFE801F046
:102FF0004009093C0909090909090938093409097D
:103000003000A0F13001092940F28C802A2800F01C
:10301000F58000210C912E2800F099800027A0F166
:10302000680112292DD8DFE811F057012C00510159
:103030002C0045012C002C002C002C002C002C0016
:103040002C0027002C002C002C002C002C0027002A
:10305000924643F00103C2E7924643F00203BEE703
:10306000924643F00403BAE7924643F01003B6E7F2
:10307000924643F00803B2E79AF8010043F48073E4
:1030800001326728924600F28280242840F2C680EE
:10309000A0F12502422A00F2C180DFE812F05F01B0
:1030A000BF00BF00BF00BF00BF00BF00BF00BF0028
:1030B000BF00BF00BF00BF00BF00BF00BF00BF0018
:1030C000BF00BF00BF00BF00BF00BF00BF00BF0008
:1030D000BF00BF00BF00BF00BF00BF00BF00260190
:1030E00045012601BF00BF00BF00BF00BF00BF00F9
:1030F000BF00BF00BF00BF00BF00BF00BF00BF00D8
:10310000BF00BF00D301BF00BF00BF00BF00BF00B2
:10311000BF00BF00BF00BF00D3016701D30126017C
:1031200045012601002100E0013201EB810100EBA5
:10313000410110789246A0F13004092CA1F1300130
:10314000F2D92E280C9102F101027FF467AF9AF8B0
:1031500001001146A0F13006092E43F4806340F2CD
:1031600031812A2800F03E8192460027013256E73D
:103170004C46099B994501D303F1FF394A4600208B
:10318000099B0A99D84720461BB0BDE8F08FA0F1F3
:103190006902D2B20F2A41D8012649F24101964074
:1031A0000E4040F001810A2A3FD0072A36D10B9CFD
:1031B00054F8042B002A00F0288143F021010DF17E
:1031C000480E704603E0202E00F029811A4602F0D6
:1031D0000F052B46092D94BF303337330F2A00F8E3
:1031E000013B06F101064FEA1213ECD817E100BFCC
:1031F0008D2F00102C000220ED2300100B9C9AF85C
:10320000010054F8045B9246002DBDBF694243F0B3
:1032100002030C910C950B940132FCE64A46099B83
:103220000A9909F10109D847CFE60B9951F8048BA7
:1032300098F800201046002F40F0E18072B16FF046
:10324000010C0CF1010C4646C44401E0664503D074
:1032500016F8014F002CF9D1A6EB080613F4806C88
:1032600002D0BE4228BF3E4613F0020400F0878120
:10327000002A00F02B81BCF1000F00F041810B947B
:103280000D964A46DDE909540E464F4408E02B46A8
:103290002146D84718F8010F09F1010910B14A4633
:1032A0004F45F4D131460B9C0D9E002C40F00E8111
:1032B0000B918AE69AF801006C287FF4DFAE9AF849
:1032C000020043F440730AF10302DAE69AF80100BF
:1032D00043F400730132D4E69AF80100682800F044
:1032E000208143F080030132CBE6672800F0E780BD
:1032F000472800F00081452800F0FF800B9C0493D4
:103300000C9B0734CDE9027324F007031C46DDE96A
:103310000931F4E802674A465846CDE900670B9444
:10332000FFF70AFA814650E646280B9C08BF43F097
:10333000200304930C9B0734CDE9027324F00703A8
:103340001C46DDE90931F4E802674A465846CDE9F2
:1033500000670B94FFF720FC814636E64A4625209D
:10336000099B0A9909F10109D8472EE60B9A9C0797
:1033700002F1040709F1010640F1E6801078099B8B
:103380004A460A99D8470C9B012B40F22C81DDE973
:103390000954994432462B46214620200136D8470D
:1033A0004E45F7D10B9710E66F2800F08B8040F266
:1033B0006581782800F008814FF00A0823F0100397
:1033C000C44647E0002707EB870700EB4700A0F162
:1033D000300711F8010FA0F13002092AF3D98A460B
:1033E0004A1C1CE60B9C9AF8020054F8047B0AF174
:1033F000020A0AF101020B9427EAE7770FE6002A96
:103400003FF42CAF07F1FF3C1BE723F0100113F44E
:10341000806241F021013FF4D2AE0DF1480E082345
:103420001020059300234A46CDE902300691584604
:10343000DDE90931CDE900E60497FFF727F80B94A1
:103440008146C2E5582879D0622840F051824FF079
:103450000208C44613F480606DD123F00C0313F40A
:10346000007240F0C2800B9904310D9113F4807109
:1034700040F02E825E060B9A40F1AA801278002A54
:1034800040F0DA8023F01003002800F0D5801146C8
:103490000DF1480E06930C9BCDF80CC0CDE90473DA
:1034A000019100234A4602935846DDE90931CDF8DF
:1034B00000E0FEF7EBFF0D9B81460B9385E543F49F
:1034C00000631BE74FF00808C446C3E70C9B4C465B
:1034D000B3427FF6EDAE0F464B44A3EB0609DDE9A0
:1034E000096522463346294620200134D8474C45F9
:1034F000F7D13946DCE643F4006343F02003FDE6F0
:103500000F460B94DDE909544A462B462146D8471D
:1035100018F8010F09F101090028F5D139460B9C73
:10352000C3E69AF8020043F0C0030AF10302A8E5DB
:10353000044681461DE623F00D0390E74FF0100886
:1035400043F02003C44685E70C9B012B45D9DDE9F8
:1035500009544E4609F1FF38984432462B4621461D
:1035600020200136D8474645F7D10C9B3246994476
:103570000B9B1878DDE90931D8470B9725E50C9BA3
:10358000B34240F2EE81CDE90D48DDE909548846A9
:103590004B449E1BCDF82CC04A462B46214620208A
:1035A00009F10109D847B145F6D14146DDF8388027
:1035B0000C9BDDF82CC00D9C98F800205E1C10467A
:1035C000002A7FF458AE73E64FF01008C44641E776
:1035D0001D064CBF1288126851E713464A461878F8
:1035E000DDE90931D847B146DCE60B9C073424F00D
:1035F00007042246656852F8084B0B9254EA05020C
:1036000040F02C8123F01003002800F027810026D1
:103610000DF1480E06930C9B4A46CDE90473002336
:10362000CDE900E6CDF80CC002935846DDE909313A
:10363000FEF72CFF8146C8E413F0200F14BF412091
:1036400061200DF1480E7646A0F10A0803E020291A
:103650003FF420AF2246B2FBFCF40CFB1425E8B289
:10366000092D00F130058ABF4044E8B2C0B262457E
:1036700006F8010B01F10101E9D20BE723F010027A
:1036800069280D9240F06F8113F4806204D04FF4EA
:10369000806223F011030D930D9B13F4007640D14B
:1036A0000B9B03F104080D9B13F4807040F098808D
:1036B000590640F1C6800B9B19780C46CB0F0029A8
:1036C00000F0B98022460DF1480E74461646DFF828
:1036D000A0C201E020280FD03546ACFB0621C90866
:1036E00001EB8102A6EB42023032092D0E4600F1B9
:1036F000010004F8012BEDD80D9ACDE901030692E3
:103700000C9ACDE904720A234A4603935846DDE930
:103710000931CDF800E0FEF7B9FECDF82C808146E6
:1037200053E40B9C073424F00704214608466368E1
:1037300050F8081BDC0F0B9051EA030000F0C38027
:103740000A46191E48DB13460DF1480EF4460026C2
:10375000CDE90E94DFF8188201E0202E2DD05A1802
:1037600042F10002A8FB025929F0030505EB990577
:10377000521B1C469B1A61F1000508464FF0CC31E4
:1037800001FB03F108FB0511A3FB085319440523B2
:1037900005F00109A9FB03399B180A2C03F130033A
:1037A0004FEA550570F100000CF8013B06F10106E7
:1037B00045EAC1734FEA5101CFD2DDE90E940D9B6A
:1037C0004A4606930C9BCDE90164CDE904730A23B4
:1037D000CDF800E0039328E7524261EB4101B2E7E4
:1037E0000B9B1968CB0F002900F0AB8081EAE172D6
:1037F000A2EBE1720DF1480E7046DFF874C101E0F2
:10380000202E10D01546ACFB0241C90801EB810403
:10381000A2EB440404F13002092D00F8012B06F15B
:1038200001060A46ECD80D9ACDE9016306920C9A7E
:10383000CDE9047267E7002A3FF445AF0DF1480E69
:103840005AE713F0800F0B9B00F08180B3F9001052
:1038500081EAE174A4EBE174A4B22FE713F0200F26
:1038600014BF412261220DF1480E0A3ACDE90D97AD
:10387000CDF844B000267746F3469146CDE90F3C9B
:1038800003E0202E17D004460D4629464246002369
:10389000204602F045FAD2B2092A02F1300388BF6D
:1038A00002EB09034445DBB275F1000507F8013B63
:1038B00006F10106E5D2DE46DDE90D97DDE90F3CB4
:1038C000DDF844B0A6E6002A47D1134611463BE78F
:1038D0000B990968A1B923F0100388B10DF1480EC6
:1038E00006930C9BCDF80CC0CDE904730192D8E58A
:1038F00013F480627FF4CBAE23F010030D93CBE67C
:1039000013F0200F14BF412061200DF1480E7646C0
:10391000A0F10A0802E0202AE2D02146B1FBFCF423
:103920000CFB1415E8B2092D00F130058ABF4044A4
:10393000E8B2C0B2614506F8010B02F10102EAD219
:10394000CEE7002A3FF456AF0DF1480E6BE7196839
:1039500081EAE174A4EBE174B0E600260DF1480EB3
:103960002DE701362BE64FF00A081346C44671E5F1
:10397000CDCCCCCC84460CB410B584B006AC54F895
:10398000043B0A460094614604480394FFF7FEFA9C
:1039900004B0BDE8104002B0704700BFE52300103E
:1039A00010B5094B84B01C684CB1034600914FF030
:1039B000FF3203A90548A047012004B010BD00F064
:1039C00033F9204604B010BD2C000220312700102E
:1039D00000BEFDE708B5FFF7FBFF00BF38B5064C9A
:1039E000064DFEF7C5FAAC4204D254F8043B9847A2
:1039F000AC42FAD338BD00BF905D00109C5D001052
:103A00000368084611461847437D2DE9F047814673
:103A10000F461646002B43D0002A3BDD037D0020D5
:103A20004D1E014615F8012FDFF884800A2A01F1A6
:103A300001040ED0A6421CD02B782146A3F10D0321
:103A4000B3FA83F315F8012F5B090A2A01F1010487
:103A5000F0D1002BEED18142A1EB000138441BDCF8
:103A600002214046D9F800309847A64208D02046A7
:103A7000E2E7864204DD311AD9F80030384498472D
:103A8000374417F8013CA3F10D03B3FA83F35B0944
:103A900089F81430BDE8F087D9F800309847DFE79F
:103AA0003846D9F800301146BDE8F047184700BF46
:103AB000086100102DE9F04782B00D469246994604
:103AC0000746FEF70FF94FF0FF366FF000442F4A1C
:103AD000821841F10003964274EB03013CBF324669
:103AE00023462B4802F02CF96B1C804603D1384644
:103AF00002F08EF80546274B274E1C68274BB9F17C
:103B0000000F18BF1E46B4B1BAF1000F1AD1DFF88A
:103B1000909001E0246974B12368002BFAD0D9F8A1
:103B200000300BB19C42F5D120462A463946B047B9
:103B30002469002CF0D1B8F1000F1FD1284602B043
:103B4000BDE8F0874FF00A0ADFF8549002E02469DC
:103B5000002CF0D02368002BF9D0D9F800300BB13D
:103B6000A342F4D12A4639462046B04701222046D6
:103B70000DF107018DF807A0B047E8E7044802F00F
:103B8000D3F8284602B0BDE8F08700BF40420F00DE
:103B9000A8110020042A0120013A0010093A00105F
:103BA0000CFC0120F0B583B006468DF80700FEF747
:103BB00099F84FF0FF356FF00044174A821841F131
:103BC0000003954274EB03013CBF23462A46134889
:103BD00002F0B6F8124B07461C689CB1114D01E08B
:103BE00024697CB12368002BFAD02B680BB19C426E
:103BF000F6D1204601220DF10701FFF705FF2469E8
:103C0000002CEFD117B9304603B0F0BD034802F0E5
:103C10008BF8304603B0F0BD40420F00A8110020E1
:103C2000042A01200CFC012038B5044601F0F0FF05
:103C3000012305461A4620462946FFF73BFF084B5D
:103C40001C682CB163682BB198472469002CF9D10A
:103C5000284638BD2469002CF4D1284638BD00BF61
:103C6000042A01202DE9F04789460546FDF7C4F9ED
:103C7000012399F8042099F905C005F12F4EDFF8CA
:103C8000D8800EF5600E93404FEA1E5EBCF1000F27
:103C900058F82E7003F1FF3346DBC2F120018C454A
:103CA000644631DC03FA0CF139422DD16646D5F871
:103CB00068A199F80710BAF1000F2CD0C9072CD4CD
:103CC000BCF1000F01DB664527D1B3401F423CD158
:103CD000D9F8001082B1B44601EB420931F8022B49
:103CE0000CF1120AB2F5005F38BF921949450CF188
:103CF000010C45F82A20F1D13B4348F82E30FDF75E
:103D00008DF92046BDE8F0874FF0FF34FDF786F9C6
:103D10002046BDE8F0874907D2D56FF00A04FDF7C9
:103D20007DF92046BDE8F087D2F120040DD403FAD6
:103D300004F13942264603D1B9E739422646B6D0C6
:103D4000013C661C03FA04F1F7D16FF00804FDF79B
:103D500065F92046BDE8F087C027012010B504466C
:103D6000FDF74AF9002304F12F42084902F56002E9
:103D7000120D41F8223003F1120244F822300133CF
:103D8000202BF8D1BDE81040FDF748B9C02701202D
:103D90002DE9F041D0F868419DF81860121B1F2AE8
:103DA00038D84EF29F044EF280054FF4003801EBF4
:103DB000410C002E18BF254600EBCC0404F54354FB
:103DC00000EBCC0C052BDCF8DC704FEA410EDCF884
:103DD000CC60C4F80C800CD95401053B44F0A054CD
:103DE0000532052BCCF8DC4002F01F02CCF8D8508D
:103DF000F2D8714400EBC1010020520142EA836312
:103E0000C1F8DC30C1F8D850C1F8DC70C1F8CC6022
:103E1000BDE8F0816FF00400FAE700BFF0B50125BE
:103E200004688D4024EA05040460B3B3D3E9015665
:103E30001F68DC6801EB410300EBC303C3F8C870E3
:103E40004FEA410CC3F8D060C3F8CC50C3F8DC4053
:103E50000CEB01034FF0013500EBC30C4FF00046B3
:103E600000EBC30E01230EF5865E0C1D01F1080761
:103E70008D40CEF8106003FA04F4CEF8106002F022
:103E80001F028560BB4000F5005004600EF1100E6B
:103E900003600020CCF8D820F0BD4FF480374FF4F9
:103EA00040264FF4F83501EB410400EBC404C4F89C
:103EB000C8704FEA410CC4F8D060C4F8CC50C4F8C4
:103EC000DC30C5E710B5054C82B001460F23002257
:103ED00000940348FDF7D8F802B010BD205F001031
:103EE0003C02022070B500F02BF90C2340251B4C3E
:103EF000FF220E201A49A367FDF7AAF9194B0021EA
:103F000018462A4601F0A4FD034600218020012620
:103F1000154A58849A60843A59605E701D831D87E3
:103F2000C2F88410C2F8801002F58072DA60DA629A
:103F3000803A83F8211083F83B1059629A6201F0AD
:103F400003FF4FF000504FF480320849084B2664BD
:103F5000E064C4F89010DA6470BD00BF0000115036
:103F60005D03002028FC01208400105010D00100C7
:103F70000020115001210E20FDF724B90022024833
:103F8000114600F0FDB800BF48FC0120044B197039
:103F900021B14FF40032034BC3F89020704700BFAB
:103FA0003F020220002011500B785B0602D14B78B3
:103FB000052B00D070474B88014ADBB21360704775
:103FC000000011504FF0000C2DE9F0418878354D7C
:103FD00000F07F025600CF788B8806EBD01105EBFE
:103FE0004111C4098870C7F30100C876C3F30A03FE
:103FF00084F0010081F803C00B83487007F00307C9
:10400000D10084BB2848043105EB821E01EB000877
:10401000CEF8088041F800C082B32449D200114490
:10402000CEF8041022483F33016823F03F03022FEB
:10403000204A08BF5B000B44036081EA020853403A
:10404000321905EB4212B3F5805FD16027D82644C0
:1040500005EB46156B6848EA876242F00042012092
:104060001A60BDE8F081DFF840E010B2714405EB62
:104070008218C8F828104EF830C042B900230E4A02
:1040800005EB44140120E2606360BDE8F081D200DA
:1040900002F1A04202F58012C8F82420C2E7FDF721
:1040A00061FFD4E728FC012080001050040010506C
:1040B000D4010220000010500001105001F044BE55
:1040C0008C4608B5114607481A460CF07F034FEAA4
:1040D000DC1C0CEB430C00EB4C1000F051F8012001
:1040E00008BD00BF28FC0120CB0911F07F0103D1DE
:1040F000064AC3F102009066054803EB41034FF402
:104100000062002100EB431001F016BE00201150A8
:1041100028FC012011F07F0300D17047002210B469
:10412000C809064C00EB430004EB40136FF4006138
:1041300018465DF8044BDA7001F0FEBD28FC012042
:104140004FF0805209480A4908B50A4B02600A60DC
:104150009968C94311F08051FAD14FF48052064852
:1041600001F076FC0922054B5A6708BD0020024089
:1041700000300240000002400000105000001150CA
:1041800000234FF0010C10B580F81AC08282C38260
:104190000161044601F0BCFD20B14FF40032074B31
:1041A000C3F89020204601F0C3FD10B1012323770E
:1041B00010BD2046BDE8104001F0AEBD00201150FA
:1041C000002070472DE9F0414FF000081C4D0446D7
:1041D00042462B781B4F1C4E0DE0336813EB421305
:1041E00025D0DB682046984708F101082B785FFA54
:1041F00088F2934206D39342A2EB0303EDD807EB78
:104200004313EEE7114C54220021204601F020FC1C
:104210004FF0FF33251D6360C5E90133EB6004F106
:1042200014002022BDE8F041FF2101F011BC4FF045
:10423000E023D3F8F03DDB0700D500BEBDE8F081F8
:104240003E0202200C610010E0250120A42601207E
:10425000704700BF704700BF0020704700207047C4
:1042600000207047704700BF704700BF704700BF15
:10427000704700BF024B5878003818BF01207047C4
:10428000A4260120024B1878C0F38000704700BFBD
:10429000A42601202DE9F8432B4E3378FF2B02D0C2
:1042A0000120BDE8F883002154220546274801F08B
:1042B000CFFB0022264C274B20461A70FDF746F90B
:1042C000254B26481C60264CFDF74EF9204601F090
:1042D0005DFB244A244B1460244C5BB32046AFF3AF
:1042E0000080234B227818604FF00009DFF88480AB
:1042F0004B461F4F0DE03A6812EB431311D05B6839
:104300007BB1984709F1010922785FFA89F39A4253
:1043100012D39342EFD39B1A08EB43135B68002B35
:10432000EFD14FF0E023D3F8F03DDB0700D500BE1E
:104330000020B6E72278D7E728463570FFF7D2FD90
:104340002846FFF717FEABE7A0110020A4260120A6
:104350005C26012040020220F8260120981100204E
:1043600084110020FC260120000000003E020220F3
:10437000E02501200C6100102DE9F04FDFF8B0922C
:104380008BB099F80030FF2B00F0ED80A24CA34DCC
:10439000DFF898A2DFF89CB226687369EFF3108209
:1043A00072B6D3E8CF0F01210028FAD1C3E8401F2D
:1043B0000028F6D1BFF35F8FB261304607A901F044
:1043C00033F900237269C2E88F3FB36983F3108821
:1043D000002800F0C8809DF81D30013B072B00F23B
:1043E0006B83DFE803F0A5AF939B8C350A04089B31
:1043F000002BD1D009989847CEE79DF8201001F006
:104400007F0605EB460000EBD11090F8343023F026
:10441000010380F8343090F8343023F0040380F83E
:104420003430002E00F0A280027D9AF800309A42CB
:1044300080F091807A4B1B6813EB421300F08C8064
:104440009E699DF82120099B9DF81C00B047A3E7B9
:104450009BF80030002B7FD09BF80030013BDBB293
:104460008BF800309BF8003003F0FF00002B93D155
:104470006A4F9DF81C803B7843F001033B7097F82E
:10448000343060F3000387F8343097F8343060F349
:10449000820387F8343097F8353060F3000387F8EB
:1044A000353097F8353060F3820387F8353000F007
:1044B00059FC9DF8203003F06002602A66D0402A43
:1044C00076D003F01F03012B00F0B680022B7BD0C7
:1044D000002B5BD1202A00F0DB81002A56D19DF809
:1044E0002130092B52D8DFE813F0A20194015100CA
:1044F000B301510087015D0151005201E5002B78A5
:10450000D9077FF549AFFFF7B3FE45E7EB78DA0748
:104510007FF542AF0898FFF79DFE3DE72B78D8075F
:104520007FF53AAF2878C0F3C000FFF79FFE33E76E
:104530009DF81C00FFF746FE00F00AFC9DF82030B5
:10454000AB7029E79DF81C00FFF73CFE00F000FC73
:10455000FFF78AFE20E711D04FF0E023D3F8F03DBB
:10456000DC0700D500BE0BB0BDE8F08F099B9DF8BD
:1045700021209DF81C0000F009FC0DE7294B5FE7A6
:10458000FCF78EFC0246002840F079814FF0E023D2
:10459000D3F8F03DDE0700D500BE9DF81C000021D9
:1045A000FFF7A2FD80219DF81C00FFF79DFDF3E6BB
:1045B0001D4800F0D7FB0121404608AAFFF700FE86
:1045C00000287FF4E9AEE8E79DF8241011F0700FA1
:1045D000DCD101F07F0607EB4600144B00EBD11055
:1045E0001B78007D7600019698424FEAD11600961E
:1045F0004FD340F05F810B4E002A00F05F8170695D
:1046000000F0B0FB01214046736908AA98470028D2
:104610007FF4C2AEC1E700BFFC260120A426012022
:10462000E02501200C610010C14100103E02022073
:10463000A0110020400202209DF824300F2BACD89E
:10464000AA4A3B441B79127893422DD3A5D1A84E98
:10465000706900F087FB01214046736908AA9847FA
:1046600000287FF499AE9DF8203013F0600694D1B5
:104670009DF821300A3B012B8FD800F073FB9DF889
:1046800021300A2B00F0F181404608A900F0F0FA31
:1046900082E6984B1B6803EB4016002A00F00E815F
:1046A000002E3FF47AAFAAE7924A166816EB43163B
:1046B000CED172E77B789DF822609E4200F04C815B
:1046C0007B78002B40F0BD817E70002E00F042818F
:1046D000701EC0B2FCF7E4FB0346002800F05E81C8
:1046E0004278022A40F05A81C17903F10906C1F3E8
:1046F00040121201C1F3801142EA4112314638786A
:1047000020F0300002433A705A88CDF808809A1899
:104710000092009B8B4240F2A3814B780B2B00F060
:10472000AE814FF0010C042B40F038810023009A39
:104730001E46521A92B201926C4ACDF80CC0127801
:104740001DE06C4A126812EB461800F02781019AAE
:1047500005930298D8F8103004919847059B0828D3
:104760000246049903F1010303D90198904280F0B5
:10477000F8805E4ADEB21278B242C0F00F81B242D7
:10478000A6EB0202DDD85A4800EB4218DFE77B783F
:1047900040468DF81A300DF11A02012308A900F0E5
:1047A00081FAF9E5BDF82200030A013B020AC0B212
:1047B0000E2B3FF6F2AE01A151F823F0CD490010C7
:1047C0006D480010094A00109B4500109B450010E1
:1047D000EB4900106D4800109B4500109B450010F0
:1047E0009B4500109B4500109B4500109B45001009
:1047F0009B450010BF49001008A800F0B9FA4046D8
:104800009DF82210FFF7BAFB3B7843F002033B70A0
:10481000C2E5BDF82230012B7FF4BFAE3B784046A5
:1048200023F0080308A93B7000F022FAB4E54046E3
:104830003B789A0802F00202C3F340131343ADF829
:104840001A300DF11A02022308A900F02BFAA3E591
:10485000BDF82230012B7FF4A0AE3B78404643F0F8
:10486000080308A93B7000F003FA95E5022A3FF41B
:1048700087AEFFF7F5FC024600283FF48EAE4046B7
:10488000538808A900F00EFA00287FF485AD84E66D
:104890009DF824300F2B3FF680AE144A3B441B7921
:1048A000127893421DD2134A166816EB43167FF412
:1048B000A6AE72E6002A7FF470AE00269DF8212095
:1048C00002F0FD03012B17D0002A7FF45FAE019B9D
:1048D000009A3B44134493F834304046C3F34003FA
:1048E000ADE77FF45AAE024E89E600BF3E020220D9
:1048F0000C610010E0250120BDF82230B3B9012A77
:1049000099F8000000F08880FFF7EEFB019B009A09
:104910003B44134493F8342042F0020283F83420DD
:1049200093F8342042F0010283F83420002E3FF443
:1049300033AD706900F016FA7369012108AA404688
:104940009847002000F00EFA97F83530DF073FF562
:1049500023AD99E6FFF788FC404608A900F088F9E6
:104960001AE5DDF80CC0BCF1010F00F09D80BCF130
:10497000000F00F08A80002391F8028004E00671A5
:10498000D8B2844540F2818008EB030057FA80F0EA
:1049900090F804E00133BEF1FF0FF0D04FF0E023B8
:1049A000D3F8F03DDA0700D500BE4FF0E023D3F88E
:1049B000F03DDB0700D500BE00237B70EDE5FFF77F
:1049C0004BFC024600287FF45AAFE6E5FCF764FA98
:1049D000024600283FF4DAAD4046122308A900F051
:1049E00061F900287FF4D8ACD7E5FFF737FC024621
:1049F00000283FF4D2AD4046137808A900F052F9E0
:104A000000287FF4C9ACC8E5BDF82410FCF74CFAC7
:104A100002460028EFD1C0E50293FFF77BFB019A25
:104A2000009B3A441A4492F83410029B63F341010C
:104A300082F8341092F8341063F3000182F83410D5
:104A400074E700214046FFF7A1FA4046FFF736FB26
:104A5000BB7840460093FFF7B5FB009BBB7033E685
:104A6000DDF80880FFF7FEFB76E74046012308A942
:104A70000DF11A028DF81A6000F014F98CE40B782D
:104A800091F803C019444B784DE633460F48039222
:104A9000019100F041FD0E4B01991B78039AB3423E
:104AA0001144BFF436AE79E7D8F81000094B9842AC
:104AB00008BF4FF0020C5EE74FF0E023D3F8F03D63
:104AC000DB077FF569AC00BE66E400BFB8260120B5
:104AD0003E020220955100102DE9F84FDDF82880A4
:104AE000002A3FD00C461E4615464FF0000B1F4FC4
:104AF000DFF87C9017E0204699F8021000F0DAFC0D
:104B0000F8B121465046FFF75DFA08B3A3780BF1E0
:104B1000010BDA0916BF0B9A88F80030137023785E
:104B2000AB451C441ED06378052B11D1E17801F010
:104B30000301B1420CD1A37897F800A013F0700FD5
:104B4000D9D04FF0E023D3F8F03DDA0700D500BE0E
:104B50004FF0E023D3F8F03DDB0700D500BE002086
:104B6000BDE8F88F0120BDE8F88F00BFA01100203C
:104B7000A426012038B50E4B1D788B7813F0700FEA
:104B800008D04FF0E023D3F8F03DDB0700D500BE9E
:104B9000002038BD074B0C460846997800F08AFC87
:104BA0000028EED021462846BDE83840FFF70ABA73
:104BB000A0110020A42601200B46064A06481168D1
:104BC000DA09343203F07F0302EB4303184400F0A8
:104BD0002BBC00BFF8260120A42601200B46064A64
:104BE00006481168DA09343203F07F0302EB43030D
:104BF000184400F043BC00BFF8260120A426012081
:104C000010B5194C01F07F0E04EB4E0404EBD114E7
:104C100094F834C015481CF0010F04F130040078FA
:104C200008D04FF0E023D3F8F03DDA0700D500BEFE
:104C3000002010BD94F804C04CF0010C84F804C0AE
:104C4000FFF73EFA0028F4D14FF0E021227960F31B
:104C500000022271227960F382022271D1F8F03DC4
:104C6000DB07E5D5E3E700BFA4260120A011002063
:104C700030B50B4C8C46A6460546086849680023AB
:104C8000AEE803009CF800102846C943C4E902338B
:104C9000BDE830401A4601F08001FFF7B1BF00BF08
:104CA000E82501202DE9F041274F4FF00008BE46CE
:104CB0008C46064608684968BA60AEE80300A7F863
:104CC0000E801546BCF80620934228BF1346BB81D0
:104CD0009AB11C462BB3DDB197F90030402C28BFA8
:104CE0004024002B28DB414623463046174AFFF775
:104CF00087FF68B10120BDE8F0819CF800101346E1
:104D0000C943304601F08001FFF77AFF0028F1D156
:104D10004FF0E023D3F8F03DDB0700D500BE0020C4
:104D2000E9E71A46397801F0800123463046FFF75B
:104D300067FF0028DED1EBE722462946034800F052
:104D4000F1FE8021014AF0E7E825012064260120D8
:104D50000022034BC3E90022C3E902221A61704713
:104D6000E8250120014B1861704700BFE8250120AC
:104D700030B40246044C0025234600685168C4E95B
:104D8000025530BC03C37047E825012070B53C4C88
:104D9000C90922780646B1EBD21F1D4682B017D052
:104DA00053B14FF0E023D3F8F03DDB0702D40020ED
:104DB00002B070BD00BEFAE72146FFF7F5F823699F
:104DC0001BB12246032130469847012002B070BD36
:104DD00094F90030A068002B05DB0028E7D02A46B4
:104DE000284900F09FFEE089A168E388284480B24A
:104DF00029448342E081A16016D03F2D14D9A289B5
:104E000094F90040131A9BB2402B28BF4023002C7A
:104E100026DB90424FF0000130D01A4A3046FFF7AF
:104E2000EFFE0028D1D1BCE7236923B1022130462F
:104E3000134A984758B121780023C94330461A468F
:104E400001F08001FFF7DCFE0028BED1A9E7014692
:104E50003046FFF749F980213046FFF745F9B4E7BE
:104E6000904208D01A460748019300F05BFE80216B
:104E7000044A019BD2E780210022CFE70A46CDE712
:104E8000E82501206426012070B50446FFF7F2F9F9
:104E900000B970BDFFF7F6F905460028F9D1E378AF
:104EA000002BF6D004F11006304600F0ABFB3F2893
:104EB000EFD92846E178FFF77FFE0028E9D0304699
:104EC00000F0A0FB3F2809D904F509522846E178F3
:104ED0004023BDE870400832FFF792BE2846E178D3
:104EE000BDE87040FFF77ABE10B50446FFF7C2F97F
:104EF00008B9002010BDFFF7C5F90028F9D142F22A
:104F0000C822034B02FB0433187900F0010010BDE6
:104F10000000012042F2C82208B5034B02FB00301A
:104F200000F056FB08BD00BF100001202DE9F8433A
:104F30004FF6FF7442F2C823A24228BF224603FB69
:104F400000F41E4F04F110053D44284692B200F0D3
:104F5000B5FB0646FFF78EF910B93046BDE8F88379
:104F6000FFF790F981460028F7D107EB040898F87D
:104F70000330002BF1D0284600F044FB3F28ECD949
:104F8000484698F80310FFF717FE0028E5D028469A
:104F900000F038FB3F280AD904F509520832484688
:104FA000402398F803103A44FFF72AFED5E7484615
:104FB00098F80310FFF712FECFE700BF00000120B2
:104FC0002DE9F0410446FFF755F910B90020BDE87E
:104FD000F081FFF757F906460028F7D142F2C823BF
:104FE00003FB04F4DFF8608004F1240545442846FF
:104FF00000F0EEFA0028E9D008EB04073046B97853
:10500000FFF7DAFD0028E1D004F50A5408344444DF
:1050100028464022214600F051FB054680B1034658
:1050200022463046B978FFF7EBFD38B94FF0E02360
:10503000D3F8F03DDB07C9D500BEC7E72846C6E771
:10504000B978FFF7CBFDC1E70000012038B54FF676
:10505000FF7542F2C823AA4228BF2A460A4C92B2E0
:1050600003FB00440546204600F0E4FB03462046CF
:105070001C4600F0ADFA3F2801D8204638BD28462E
:10508000FFF79EFF204638BD2400012042F2C822CF
:1050900008B5034B02FB003000F0B4FA08BD00BFB6
:1050A00024000120F0B51A4C83B042F2C82200213E
:1050B000204600F0CDFC0025FF234FF4E13108220B
:1050C0001448154F0570009504F110006371A1603C
:1050D000A27304F1380101234FF4007200F048FA82
:1050E00001234FF4005204F50E71009304F12400E3
:1050F00000F03EFA04F509563846FCF727FA304628
:10510000FCF724FAC4E90757C4E90C6503B0F0BD05
:1051100000000120E425012038220120094B196BF1
:1051200049B11A6A12B10022C3E907220022C3E979
:105130000C22012070471A6A002AFAD00120C3E924
:105140000711704700000120002210B50E4C0F48D7
:10515000237802600271DA0707D59B070BD5BDE8FB
:10516000104001210A4800F02DBC103000F00EFC68
:1051700023789B07F3D4064800F008FCBDE81040F4
:105180000121034800F01EBCE4250120000001209D
:1051900024000120F0B54B7983B0022B03D0002509
:1051A000284603B0F0BD8B79022BF8D1244FBB7891
:1051B0007BBB8B7806463B700B780925CC18617851
:1051C00024290BD1082A02D81FE0AA421DD3237834
:1051D0001C4461782B4424299DB2F6D0052920D0A7
:1051E000042912D163790A2B0FD1164B277801932A
:1051F00001330093022330461A46E119FFF76CFC95
:1052000038B10E3517FA85F5ADB20D48FFF73CFE03
:10521000C6E74FF0E023D3F8F03DDB07BFD500BE73
:10522000BDE721463046FFF7A5FC0028F1D0A37862
:105230007B7023781C442B4461789DB2D0E700BF7B
:105240000000012002000120137803F06003202BEE
:105250000ED170B5274C938894F800C09C4509D1B5
:105260005378203B032B05D8DFE803F00C18200609
:1052700000207047002070BD01292ED0032930D0B6
:10528000012070BD01290BD00329F9D11A4B002B45
:10529000F6D000201949FBF7FDFDF1E70129EFD118
:1052A00011460723154AFFF7FDFCE9E7012914D051
:1052B0000329E5D15588124805F0010686F0010161
:1052C000257100F07FFB0F4B002BD9D03146002019
:1052D000C5F34002FBF7CEFDD2E71146FFF7C8FC4D
:1052E000CEE7094B002BCBD000205188AFF30080D4
:1052F000C6E700BF00000120950E00100800012045
:1053000024000120750E0010000000002DE9F04778
:10531000364E0C46F27807468A421D4696F802C081
:105320003CD08C4513D04FF0E023D3F8F03DDB07A1
:1053300000D500BE0020BDE8F0872D4B23B12D48DD
:1053400000F056F900284ED02848FFF79DFDB378AD
:10535000A34202D00120BDE8F087274B13B1002003
:10536000AFF300800020FFF72BFE0028F2D1234886
:1053700000F02EF90028EDD1002DEBD015F03F05FF
:10538000E8D13846B178FFF717FC0028E2D02B4669
:105390002A463846B178FFF733FCDBE79AB2184962
:1053A00006F1100000F046FA164B002BC5D07379B9
:1053B000FF2BC2D0002DC0D0DFF84C8006F11009C1
:1053C00008EB050A02E0C245B7D0737918F8012F3F
:1053D0009A42F8D1484600F00BF90028F3D17179D0
:1053E000AFF30080EFE7AFF30080ADE700000120EE
:1053F0000000000010000120000000002400012037
:1054000048220120000000004722012008B50020AA
:10541000FEF740FF00B108BD4FF0E023D3F8F03DA8
:10542000DB07F8D500BE08BDF8B5037813F001041A
:105430001AD1037805465A07C3F3800701D52046E1
:10544000F8BD0E464FF0FF31304600F05DFC2B7882
:1054500013F001040BD12B785B0709D42B780124BE
:1054600043F004032B7003E000242046F8BD3C46C3
:10547000304600F059FC2046F8BD00BF70B50C4620
:1054800005464FF0FF31204600F03EFC2B78C3F379
:1054900080065B0708D52B7813F0010311BF0026A7
:1054A0002A7863F382022A70204600F03DFC3046E1
:1054B00070BD00BFC378828803F003000228C2F3E6
:1054C0000A021FD0032803D001280AD00020704709
:1054D000022914BF40234FF48063934209D3012073
:1054E0007047022940F2FF3308BF4FF480639342B4
:1054F000F6D24FF0E023D3F8F03DDB07E6D500BE4F
:1055000000207047022902D0402AE8D9F1E7B2F51D
:10551000007FE4D0EDE700BF0A44914226D291F823
:1055200001C0BCF1050F05D091F800C061448A426A
:10553000F5D8704700B591F802C00CF07F0E00EB73
:105540004E0E4FEADC1C0EF80C3091F800C061449E
:105550008A4209D991F801C0BCF1050FEBD091F84E
:1055600000C061448A42F5D85DF804FB704700BF73
:105570002DE9F041B2F5004F9DF8188024D804467B
:10558000C06817460E461D4618B14FF0FF3100F0B7
:10559000BBFB206918B14FF0FF3100F0B5FB0022D2
:1055A000C5F30E03E06843EAC83362812660A78032
:1055B000E380228108B100F0B7FB206908B100F058
:1055C000B3FB0120BDE8F0810020BDE8F08100BF01
:1055D000038942899BB292B28088934236BFC2EB64
:1055E00040029B1A9B189BB2984228BF18467047EE
:1055F0000289438990B29BB2C01AB0FA80F0400988
:10560000704700BF038942899BB2808892B293425F
:1056100036BFC2EB40029B1A9B189BB2984286BFD2
:10562000C01A80B20020704738B5044600690D46A4
:1056300018B14FF0FF3100F067FB2189638989B20F
:105640009BB2A288994236BFC3EB4200C81A4018E9
:1056500080B250B3824209D291422CBF891A891874
:105660008BB29A42638103D89B1A9BB29A42FBD9B0
:10567000E2882168C2F30E0202FB0311284600F003
:1056800051FA6189012589B24B1C9BB29942A288CB
:105690000ED9002302FA05F15B1A9BB220696381DF
:1056A00008B100F041FB284638BD054663899BB22E
:1056B000B3EB420F4FEA4201F0DBEDE72DE9F04793
:1056C000064600698846914618B14FF0FF3100F058
:1056D0001BFB338974899BB2A4B2B588A34236BF41
:1056E000C4EB45071F1BFF18BFB2002F4AD0BD42B5
:1056F00040D3B94528BFB946A5421FFA89F703D858
:10570000641BA4B2A542FBD9B6F806A02B1B3168D6
:105710009BB2CAF30E029F42924602FB041123D9A8
:1057200013FB02F31FFA83F94A4640467D1B00F043
:10573000F9F9621912FB0AF2316808EB090092B21A
:1057400000F0F0F97289B58892B2D3199BB29A42EF
:105750001AD96A009B1A9BB23069738108B100F0B4
:10576000E3FA3846BDE8F087404607FB02F200F056
:10577000D9F9E7E7AB422CBF5B1B5B199CB22F4604
:105780007481B6E773899BB2B3EB450F4FEA4502CC
:10579000E2DBDFE7F8B50446C0680E4618B14FF00B
:1057A000FF3100F0B1FA2589238961899BB289B262
:1057B000A2888B4236BFC1EB42015B1A5B189BB2D9
:1057C0009A42ADB208D8E779FF0905D1E06808B17F
:1057D00000F0AAFA3846F8BD954219D32B469B1A19
:1057E0009BB29342FBD2E2882068C2F30E0202FB16
:1057F0000300314600F096F96B1C9BB29D42A288D3
:1058000012D9002351005B1A9BB201272381DDE7E7
:10581000E2882068C2F30E0205FB0200314600F068
:1058200081F90135A288ABB2B3EB420F4FEA4201D6
:10583000EBDBE8E72DE9F04F164683B0002A4CD0A9
:105840000546C068884618B14FF0FF3100F05CFA99
:10585000EA792F896989D209AB88BFB289B240D170
:105860008F4236BFC1EB4301791AC91989B29942F7
:1058700041D2591A89B28E4228BF0E46B5F806A009
:1058800007EB0609A6EB030BCAF30E0A1FFA89F908
:105890001FFA8BFB9F423C4603D3E41AA4B29C42FE
:1058A000FBD21B1B28689BB2B3420AFB04004BD3FC
:1058B00041460AFB06F200F035F9AA884F454FEA47
:1058C000420302D8B9EB420F03DBA9EB03031FFA33
:1058D00083F9E868A5F8089088B9304603B0BDE8B8
:1058E000F08FB5F806A09E42CAF30E0A0DD3002B26
:1058F0003FD11E4600E00026E8680028EDD000F009
:1059000013FA304603B0BDE8F08F8F4236BFC1EBCB
:1059100043027A1AD21992B258003244A6EB030B12
:1059200082421FFA8BFB0ADB01EB03091FFA89F99C
:10593000A9EB0607BFB2B94218D9381A87B206EBED
:1059400007091FFA89F9A5E713FB0AF35C4414FB66
:105950000AF49AB24146019200F0E4F8019A2868EC
:1059600008EB0201A2B200F0DDF8A6E7B84291DC34
:10597000E3E7F61A01EB03090AFB06880F461E4609
:105980004FF0000B1FFA89F984E700BF10B50446F9
:10599000C06818B14FF0FF3100F0B6F9206918B1B6
:1059A0004FF0FF3100F0B0F90023E06863812381FC
:1059B00008B100F0B9F9206908B100F0B5F901208B
:1059C00010BD00BF38B50446C0680D4618B14FF091
:1059D000FF3100F099F9206918B14FF0FF3100F064
:1059E00093F9E379E06865F3C713E37108B100F058
:1059F0009BF9206908B100F097F9012038BD00BF7C
:105A000008B51920FBF7BCFA19234FF0010242EC4C
:105A1000443008BD00B545F247308BB0FCF758FA6A
:105A200001220346092101A89847DDE90332044910
:105A300012BA1BBAC1E900230BB05DF804FB00BF2A
:105A400010020220002301461A46184600F00EB943
:105A500070B5860747D0541E002A3ED0CAB203460E
:105A600001E0013C39D303F8012B9D07F9D1032C48
:105A70002CD9CDB20F2C05EB052505EB054535D905
:105A8000A4F1100C03F1100E1A462CF00F064FEA89
:105A90001C1CB644C2E90055C2E9025510327245D9
:105AA000F8D10CF1010214F00C0F04F00F0C03EB11
:105AB000021213D0ACF1040323F0030304331344A4
:105AC00042F8045B9342FBD10CF003042CB1C9B241
:105AD0001C4403F8011BA342FBD170BD644613466E
