:020000041000EA
:10000000002008205D0100101301001015010010F0
:100010001101001011010010110100101101001058
:100020001101001011010010110100101701001042
:100030001101001011010010190100101B01001026
:100040001D0100101D0100101D0100101D010010F8
:100050001D0100101D0100101D0100101D010010E8
:100060001D0100101D0100101D0100101D010010D8
:100070001D0100101D0100101D0100101D010010C8
:100080001D0100101D0100101D0100101D010010B8
:100090001D0100101D0100101D0100101D010010A8
:1000A0001D0100101D0100101D0100101D01001098
:1000B0001D0100101D0100101D0100101D01001088
:1000C0001D0100101D0100101D0100101D01001078
:1000D0001D0100101D0100101D0100101D01001068
:1000E0001D0100101D0100101D0100101D01001058
:1000F0001D0100101D0100101D0100101D01001048
:100100001D0100101D0100101D0100101D01001037
:1001100000BE00BE00BE00BE00BE00BEEFF3058004
:10012000103800BEF2EB8871D8600010F860001043
:10013000A801001090A31AE7D3DEFFFF42012110AF
:10014000FF01000060700000793512AB4FF0000035
:100150002049086006C881F3088810474FF05040D6
:10016000006810B14FF00000F2E70FA40ECC002998
:1001700002D000F015F8F9E71749184A002000E00E
:1001800001C19142FCD1002080F30A8814498847BC
:10019000144988471449884700BEFDE701C901C2D8
:1001A0009A42FBD3704700BFF86000101001002096
:1001B000B0110020987100100000082000000820F5
:1001C00098710010001008200010082000000000A6
:1001D0007047000008ED00E0B01100204C02022042
:1001E000C53900105D080010BD390010F8B500BF1A
:1001F00008B5034B1BB103490348AFF3008008BDAA
:1002000000000000DC010220645D001070B5134D99
:100210002C68002C1BDB124E124B134D03EA4433A7
:100220004FF40042002130461D4305F0F5FB00234A
:100230006FF070420D480E4903600B60A0010D4B3A
:1002400000F1A040036046608260C56070BD01207F
:1002500003F02CFE04462860DDE700BF18110020E3
:1002600000800020FDFF01FC411F0800D401022096
:100270001C020220230020502DE9F0413C4B3D4A56
:100280008CB03D493D4800241A6003F0DFFC012397
:100290000546022221460094384803F06DFD0621F0
:1002A000022000F02DFE22460121022000F046FE31
:1002B0004FF480304FF4F8314FF440234FF480383E
:1002C000CDE90401079406930DF1200C04ACEB1D5D
:1002D000EE0146EA033694E80F008CE80F00DFF8E1
:1002E000ACE0099626F0F8579CE80F0047F000773D
:1002F00084E80F000520CDF81C800597CDF818E0A4
:1003000001F068FD07EE100A9FED1D6AB8EE477A0E
:10031000DFED1C6AC7EE067A77EEA67ABCEEE77AC6
:1003200017EE103A9BB20BB307EE103AB8EE477ACD
:10033000DFED156A77EEC77A67EEA67AFCEEE77A0C
:10034000CDED037A9DF80C1009020C4E41EA0341F1
:10035000049123462A460021304603F053FD3368BA
:1003600043F0010333600CB0BDE8F0811946ECE7BF
:100370001C110020745F0010985F001000002050D6
:1003800020BCBE4C0000003B0000804300008C807D
:100390002DE9F041654B05461B688CB0002B0BDB4B
:1003A00001214FF0A0409A0101FA03F30244C0F882
:1003B0006434D3685901FCD45D4C2368204623F093
:1003C0000103236003F0BEFC6368D80503D4236AED
:1003D0006368DB05FBD500244FF0FF32554B5649CF
:1003E0001C60564B0C70564856491A60564E574B77
:1003F000542204600C70564821461C6005F00CFB2A
:100400004FF4D2422146304605F006FB4FF4D2426B
:100410002146504805F000FB4F4B504A1E605049A2
:10042000504B0C6014601D7035B9FFF725FF0CB000
:10043000BDE8F041FFF7EABE4B4B4C4A4C493C4803
:100440001A6003F003FC01230646022221460094B1
:10045000374803F091FC0621022000F051FD2246AE
:100460000121022000F06AFD4FF480304FF4F83192
:100470004FF440234FF48038CDE9040107940693EC
:1004800008AD04ACF31DF70147EA033794E80F0009
:1004900085E80F00DFF8E8E0099727F0F85C95E8B9
:1004A0000F004CF0007C84E80F000520CDF81C8084
:1004B000CDF814C0CDF818E001F08CFC07EE100A5E
:1004C0009FED2C6AB8EE477ADFED2B6AC7EE067A0D
:1004D00077EEA67ABCEEE77A17EE103A9BB21BB322
:1004E00007EE103AB8EE477ADFED246A77EEC77A66
:1004F00067EEA67AFCEEE77ACDED037A9DF80C1054
:1005000009020B4D41EA0341049123463246002182
:10051000284603F077FC2B6843F001032B600CB0F6
:10052000BDE8F041FFF772BE1946EAE71811002056
:1005300000002050CC0102204902022010110020AE
:1005400020FC012046020220102A0120D0010220B6
:1005500078010220109301201411002024020220AF
:1005600030020220450202201C110020685F0010AA
:10057000805F00108096984C0000003B0000804394
:1005800000008C8030B50020D9B004F025FC08B9FB
:1005900059B030BD012200200DF1330104F026FCDA
:1005A0000128F5D19DF83330423B312BF0D801A220
:1005B00052F823F0C90700109105001091050010B2
:1005C0009105001091050010910500109105001093
:1005D0009105001091050010910500109105001083
:1005E0009105001091070010990700109105001067
:1005F00091050010A10700107D0600109105001064
:100600009105001091050010910500109105001052
:100610009105001091050010910500109105001042
:100620009105001091050010910500109105001032
:1006300091050010C90700109105001091050010E8
:100640009105001091050010910500109105001012
:100650009105001091050010910500109105001002
:1006600091050010910700109907001091050010E6
:1006700091050010A10700107D060010614B1B685A
:10068000002B0BDB01214FF0A0409A0101FA03F38C
:100690000244C0F86434D3685801FCD400235A499A
:1006A0005A480A685A4D22F001020A60594C5A49C8
:1006B00002682B7023600B6012B1584A036013600C
:1006C000002004F0A9FB642405E0C820002101F00B
:1006D0005DFA013C09D000214FF0FF3003F038FEF5
:1006E000002004F0A1FBFF28EFD94FF400434C4C4D
:1006F0004C484D4925684D4A046809681068CDE9A1
:10070000084507914A490A9309684A4B4A4C1B68B5
:100710002468CDE905104948049300684849494BCD
:1007200009681B68CDE9020401919B68464A474865
:1007300014780093464B4FF49671002C08BF034683
:10074000444A0DA803F00AF90DA90246002004F05E
:1007500057FB002004F060FB322400214FF0FF30F3
:1007600003F0F6FDC820002101F010FA013CF4D19D
:10077000254B5A68D10503D41A6A5A68D205FBD5AD
:10078000214A136843F001031360FFF73FFDFFE6C2
:100790000020FFF7FDFDFBE60120FFF7F9FDF7E67E
:1007A0000023264A264813602149204A03600B6033
:1007B0001360214C1F4D1C481A49194A2B602360B5
:1007C00003600B601360E3E60E4B1A68002A0ADB35
:1007D00001234FF0A040910193400144C0F86434DC
:1007E000CB685B01FCD41C490522002004F008FB07
:1007F000002004F011FB322001F0E0F9002108464E
:1008000001F066FB18110020000020502402022095
:1008100049020220CC0102201C02022030020220E8
:10082000D401022028FC012024FC01202002022007
:10083000FC290120002A012014FC012018FC0120C1
:100840003C0202201C11002045020220685D0010BD
:10085000745D00107C5D0010E45D00102DE980489F
:1008600083B005F0B1F8192000F07CFB19234FF09C
:10087000010242EC443004F00BFC002241F2210062
:100880001146AE4C04F500750E044BBF82EA00061B
:1008900013B233B21646002BC0F27F827600B3B299
:1008A00036B2002EC0F274825B009EB21BB2002BE7
:1008B000C0F269827600B3B236B2002EC0F2508226
:1008C0005B009EB21BB2002BC0F251827600B3B225
:1008D00036B2002EC0F252825B009EB21BB2002BD9
:1008E000C0F23082760024F8026F01F5807102F5C3
:1008F0000072AC4289B292B2C6D10023904ADFF8AE
:1009000094921370FFF7B8FCFFF780FCDFF8888241
:10091000DFF888A2DFF888B200214FF0FF3003F043
:1009200017FDFFF72FFE874B1B689B0103F1A043C8
:100930005B68A3EB0903C3F30E07834B1C68A74254
:1009400030D0002505E0A74226D0B5F5804F00F055
:10095000908198F80030611C012B19F80420C1F334
:100960000E0400F08280022B67D053B95D2A08D1B3
:1009700076490A70764A13700123CAF8003088F865
:1009800000300135C5F308010029DCD14FF0FF30FC
:1009900003F0DEFCA742D8D16E493B1B0A689A429D
:1009A00038BF0B60684B1C606B4B1B68002B00F062
:1009B0003B8103F053FC0746002800F09881102487
:1009C000002612E0DBF80000A3F10801028840884D
:1009D00000FB02F29142C0F00481604A12689A4220
:1009E00040F21C81013C00F07281002004F01CFAEE
:1009F0003F28054640F26B81594B1B68072BE1D815
:100A00005849C3F1080200201944009204F0F8F993
:100A1000002800F05C81524A2D1A136803441360C9
:100A2000514A116801441160009A824200F25181DA
:100A30003F2D40F24E813E46C4E75D2A00F0C9805A
:100A40004A4A136801331360494A1368013B002B7B
:100A5000136096DC4FF000023D4B88F800201A70BE
:100A6000444A1368013313608BE7DAF800303749E2
:100A7000DBF80060CA540133022BCAF8003000F0E2
:100A80009180F2889342FFF67CAF2D4B19782F4B63
:100A90005B78002940F00A8103F07F0300932B4B21
:100AA000B6F800E01A4412F8023C12F801CC4CEA05
:100AB000032C4FF6FF73BEF1000F11D02E490194A5
:100AC00001EB0E0011F8012F2C4C82EA132234F8AE
:100AD00012201B029BB2814283EA0203F2D1019CE5
:100AE0009C4514BF264A274A136801331360264BDE
:100AF000009A1B68934204DB244B1B68002B00F315
:100B0000F980214B009A1A60B3889A4280F2C9801A
:100B100073889A4204DA1E4B9B5C002B00F04281E2
:100B20004FF001020A4B1A7000234022CAF800302D
:100B30000F4B1A60022388F8003022E7FA270120C1
:100B400045020220181100201C020220340002205D
:100B500046020220D4010220240202203402022094
:100B600030020220280202203C02022024FC012044
:100B700020FC012028FC012035000220FC27012058
:100B8000FC290120002A012010110020D0010220A0
:100B9000780102200080002049020220CC010220BE
:100BA0001C1100209C490978002960D102F07F00C7
:100BB000B18881423FF765AF984B1B78002B00F05E
:100BC0008C80F388964A40331360022388F8003003
:100BD000D7E6944B1A700123CAF8003088F8003029
:100BE000CFE6521A954228BF15468F4B00201B684E
:100BF0002A46194404F004F9002868D08B4A8C492D
:100C000013688542034413600A6802440A6060D88E
:100C1000884A3E4612689A423FF6E4AE002004F04D
:100C2000FBF80023804A136001F050F8034661B3DB
:100C30004FF47A72002305F05BF8044603F00EFBD4
:100C400058B37D4B1B68002B32D019234FF00102A3
:100C500042EC4030794B1B689B0103F1A0439A683A
:100C6000002A7FF459AE6FF07042DA6154E6104604
:100C70009EE7A742BFF490AE714907F500430A68AA
:100C80001B1B9A4238BF0B608CE66E4AA2FB0330F6
:100C9000840903F0E3FA0028D3D1192340EC403053
:100CA000D8E7694A13680133136039E70093F6E621
:100CB00066490B68E31AF92BCCD9654A137883F09F
:100CC00001031370192243EC40200C60C2E7002E90
:100CD000AAD0002004F0A0F8A6E75D2A09BF514B76
:100CE00088F800301A700123CAF8003049E64E4BEC
:100CF000186099E7574A136801331360DB073FF523
:100D000000AF554B1A6801321A60474B1968534BB4
:100D10001B68002957D052490A6801320A60002135
:100D2000B2885048019304F077FE019B7288184600
:100D30003388002103FB02F204F06EFE00234A4ACE
:100D40001360DEE680EA430324F8023F01F5807178
:100D500002F50072A54289B292B27FF495ADCCE55E
:100D600080EA460633B2002BB6B2BFF6AFAD80EADA
:100D700043031EB2002E9BB2BFF6AEAD80EA46061C
:100D800033B2B6B2ABE580EA43031EB29BB294E540
:100D900080EA460633B2B6B289E580EA43031EB262
:100DA0009BB27EE52D4B32881868009E2F4906FBCA
:100DB000020004F09BFE01232A4A93552A4A136835
:100DC00001331360ACE68C46174862F3070C0360EE
:100DD0001648120A01604EF6FE50254962F30F2CA8
:100DE00072886EF3174CCA800EFB02F24FEA1E2E79
:100DF0006EF31F6C0880C1F802C00E4908320A6009
:100E00000D490A6801320A601A4A93420CBF1A4B14
:100E1000184B124A136082E7450202204602022064
:100E200020FC012034000220240202203002022093
:100E30003C0202203402022018FC0120181100207C
:100E4000D4010220D34D6210200202202C00022087
:100E500048020220042A01201CFC01201411002059
:100E600014FC012078010220D0010220360002206B
:100E700028020220102A0120109301200048704708
:100E8000E85F001000487047C85F001038B548B9E7
:100E900040F209434FF4417C174D6B801648A5F88A
:100EA00000C038BD042825D8144B134D53F82040FA
:100EB000204604F091FEC0B21F28864628BF4FF09E
:100EC0001F0E0EF1010C5FFA8CFC4FEA4C0C4CF437
:100ED000407C0028E2D02A460023601E013310F82F
:100EE000011FDBB29E4522F8021FF7D80248A5F881
:100EF00000C0D6E7002038BD30030120B05F0010ED
:100F000010B44FF480740C4B53F8202003EB800393
:100F1000C00082F0400200F1804003F5805C02F0E6
:100F2000C00200F5203003F54053CCF800204160AA
:100F30001C605DF8044B70470480034010B4084CFB
:100F4000C90041EA820154F8202004EB800351409B
:100F500003F5805301F00C015DF8044B19607047F4
:100F60000480034030B44FF0000343EC440043ECF2
:100F7000400005254FF480740B4BC20053F820103D
:100F800003EB800081F0400102F1804303F5203340
:100F900001F0C00200F5805100F540500A605D602C
:100FA000046030BC704700BF048003400FB400B53C
:100FB00083B0049C074802F02BFE3CB105A92046F3
:100FC000019102F0E1FC044802F022FE012002F04F
:100FD000F3FC00BF285E0010385E0010EFF31080B5
:100FE00072B6064BD3E8CF1F01220029FAD1C3E81D
:100FF000412F0029F6D1BFF35F8F70477B0301209B
:101000000023034AC2E88F3F80F31088704700BF77
:101010007B03012070B58646EFF3108572B6124C43
:10102000D4E8CF6F0120002EFAD1C4E8460F002E7D
:10103000F6D1BFF35F8F4FF0010CC80801F0070332
:101040000CFA03F31EF800C01CEA030608D14CEAB0
:10105000030C0EF800C0C4E88F6F85F3108870BDD4
:101060001046FFF7A3FF00BF7B030120F8B5EFF3A5
:10107000108572B6234CD4E8CF7F0126002FFAD119
:10108000C4E8476F002FF6D1BFF35F8F9A4227D88D
:101090000126D70810F807E002F0070C06FA0CFC4E
:1010A0001EEA0C0F00EBD2070DD125E04FEAD20E5D
:1010B00010F80EE002F0070C06FA0CFC1EEA0C0F0A
:1010C00000EBD20718D001329342EFD24FF0FF303D
:1010D0000023C4E88F3F85F31088984207DBF8BDF2
:1010E0000023C4E88F3F85F310884FF0FF300029BC
:1010F000F5D00698FFF75AFF4EEA0C0E104687F817
:1011000000E0E5E77B030120044A1078431CDBB2D2
:10111000182B28BF10231370704700BF2011002028
:1011200010B5054C82B001461F23182200940348D5
:10113000FFF79CFF02B010BD3C5E0010CC270120E1
:101140004FF0E022936843F000539360704700BF74
:101150000021044B03F12002C3E88F1F01339342A7
:10116000FAD17047700301204FF0E0234FF0803236
:10117000C3F80024C3F80424C3F80824C3F80C24DB
:10118000C3F81024C3F81424C3F81824C3F81C248B
:10119000C3F82024C3F82424C3F82824C3F82C243B
:1011A000C3F83024704700BF012300F01F029340B2
:1011B000400941B1800000F1604000F56140C0F895
:1011C000803103607047024A203042F82030704777
:1011D00000E100E0F8B50D46EFF3108772B6124E4D
:1011E000D6E8CF2F0123002AFAD1C6E8423F002AD1
:1011F000F6D1BFF35F8F0D4B00F110049B680C4AD2
:1012000053F82430934203D0994201D000F09EFE5F
:10121000064B9B6843F82450BFF35F8F0023C6E85A
:101220008F3F87F31088F8BD7903012000ED00E0BF
:101230001D0100102DE9F04F81468B46164683B004
:10124000EFF3108372B6DFF8D0A10093DAE8CF1F76
:1012500001230029FAD1CAE8413F0029F6D1BFF3A2
:101260005F8F664B93F90040002CC0F2A080644D64
:1012700004EB440705EB870898F8061009F11009FC
:101280001970604BBF009B6853F829006300411B35
:101290002F292FD95C49884240F0A4801C445B4B25
:1012A00002372F44043BDB1BC3F34A036FEAC343FB
:1012B0004FF421416FEAD34325F8241005EB840451
:1012C00063804BF60153A380FF2348F00100E671D1
:1012D000C4F808B0A3714B4B9B6843F82900BFF3D7
:1012E0005F8F0023CAE88F3F009B83F3108803B011
:1012F000BDE8F08F20F0010E9EF80710B1422ED805
:101300004FF42143EB53414BB91C2944043B0437B0
:101310005B1A2F44AEF104013D4CC91BC1F34A01D5
:101320002143A8F80410C3F34A033A492343A8F819
:1013300002304AF6AA2073465B1B5B415843000DFE
:1013400088F8076088F80600C8F808B048F001007F
:10135000CEF80010BFE7D179B1422ED996469EF95A
:1013600006C00CEB4C02BCF1000F05EB8202F2DA76
:101370004BF601510EF10402A8F10407BF1AC7F39E
:101380004A076FEAC7476FEAD7478EF8064003EB74
:101390000408204C05EB8803AEF8047045F828409B
:1013A000998083F806C0DE71C3F808B093E700F0B7
:1013B000CDFD124B93F9004059E7724632F8041FF5
:1013C000490514D44915023102EB410101916FF036
:1013D0000701C91B019F491B3944C1F34A0141F46C
:1013E0006041C9E7019300F0B1FD019B56E701F5AB
:1013F000FF1101F5FF511F31E4E700BF4702022052
:101400002411002000ED00E01D0100105411002007
:1014100000E0FFFF0148804779030120F0B5EFF3BA
:101420000585EDB2EFF3108C72B62649D1E8CF2FC7
:101430000123002AFAD1C1E8423F002AF6D1BFF3C6
:101440005F8F214E40F0010EB4684AF6AA2354F88B
:1014500025701E4A0446A41A644163431B0D774558
:101460005BB21BD092F906409C421CD092F912400C
:101470009C4223D092F91E409C4221D092F92A40EE
:101480009C4208BF03240FD0114A00241578137022
:101490008571C1E88F4F8CF31088F0BDB2680D4C98
:1014A00042F82540F0E7002404EB440402EB8402F8
:1014B000FF2494714BF601549480E5E70124F3E78F
:1014C0000224F1E77903012000ED00E0241100205F
:1014D000470202201D010010014B0B4403607047BE
:1014E0007003012070B5104C104DAC420ED2FF2697
:1014F000236863B1FFF708FE01462046FFF7ECFFC3
:10150000A680BFF35F8F0834AC42F1D370BDFFF704
:10151000FBFD01462046FFF7DFFF2671BFF35F8F1B
:101520000834AC42E4D370BDA8110020B0110020F3
:1015300010B50446FFF7E8FD01462046FFF7CCFF53
:10154000FF232371BFF35F8F10BD00BF10B50446AA
:101550000120FFF7E5FD034B03442360BFF35F8FDA
:1015600010BD00BF700301200D4B1A68EFF310810E
:1015700072B6D2E8CFCF0120BCF1000FF9D1C2E89A
:101580004C0FBCF1000FF4D1BFF35F8F00221B683A
:10159000C3E88F2F81F3108840BF002000217047DF
:1015A00038020220000000002DE9F04F2DED028BE3
:1015B00085B0EFF30583DBB2103B9A0818BF012218
:1015C0004FF0010103F0030018BFAB4DAB4B08BF58
:1015D000AB4D00EB820201FA00FB53F8226005F5E7
:1015E00041539FEDA38B0190C3F804B0CDF800B038
:1015F0002AE0B388180440F18C80B379002B40F0C6
:10160000D580B6F908100029C0F21581736901EB85
:10161000410103EBC103D3E90247B7F1FF3F08BF24
:10162000B4F1FF3F09D0019B05EB8301AB6A0A6966
:10163000D21AE31A934238BF0C61284600F03EFBF1
:10164000A042B941C0F2F780B6F90840009B002CD7
:10165000EB63CEDBD6F8149004EB440A284609EB82
:10166000CA07D7E902B800F029FB584571EB080119
:10167000BFDBB8F1000FC0F2C180D7E90431814A65
:10168000934200F0EA807A88B6F9080092B242EA02
:101690000040984702460B4652EA030100F0AE8034
:1016A000002B80F2CE80BBEB020B68EB030839F90C
:1016B0003A30C7E902B8002B9BDB716903EB4302A8
:1016C00001EBC202D2E90270BB4578EB000C4FEA95
:1016D00043028EDBB4462CF8083F0BE031F9323080
:1016E000F446002B0DDB03EB430001EBC0005A0076
:1016F000D0E90270BB451A4478EB000001EBC20E42
:10170000ECDA29F83A30ACF80040B38818043FF519
:1017100074AF3369EFF3108272B6D3E8CF0F0121B3
:101720000028FAD1C3E8401F0028F6D1BFF35F8F2D
:101730004FF6FF74B0880023316900B2B480C1E86D
:101740008F3F82F310889842FFF657AF0746A946AD
:10175000746906F1080807EB470E04EBCE03D3E9E2
:101760000250B6F90830C446002BA8BFB34605DACC
:101770000FE034F93A309446002B09DB03EB430ABF
:1017800004EBCA02D2E90261B54270EB0101F0DA62
:101790005E46ACF8007034F93E7024F83E30002FFD
:1017A000D9DAB3794D46002B3FF42BAF0023B37148
:1017B000B6F9083006F10808591C3CD0194677697B
:1017C00003E080465A1C3FF41EAF03EB430207EBD5
:1017D000C200B0F802C01C461CF4004F9E4637F908
:1017E0003230EED08C4280ED028B05D0A8F800306C
:1017F000318927F8321034817146E3E739F83A30FD
:1018000033813369EFF3108272B6D3E8CF0F012131
:101810000028FAD1C3E8401F0028F6D1BFF35F8F3C
:101820007388316929F83A3000237480C1E88F3F0A
:1018300082F31088DDE640BF05B0BDEC028BBDE849
:10184000F08F2846CDE9022300F038FA029A039B74
:1018500010EB020B43EB010829E708460B690291E4
:1018600098470028CAD00299D1E9002314E700BFA5
:10187000FFFFFFFFFFFFFFFF00800B40F40102208E
:1018800000000B40A91500102DE9F84F364C2569D2
:101890002DB1BDE8F84F0A213448FFF71DBEDFF82F
:1018A000E4800321404600F0F7F90326C4F80C80D9
:1018B000FFF72AFC4FF0504C2D4B26700344236158
:1018C000DCF800300F216370636961801D834FF085
:1018D0000405A3F878504FF00505A3F890504FF099
:1018E0000605A3F8A8504FF007050E214FF6FF722A
:1018F00008274FF00A0EA3F8C0504FF001094FF02F
:101900000C0C4FF0020B4FF0090A0D204FF00B05A5
:10191000A3F868111749A280A3F808E1A160A3F811
:1019200048B0A3F8F0A0A3F82051A3F838C1A3F859
:101930005001A3F83090A3F86060A3F8D8701A8023
:101940000D4B3046C8F820700C49DC60FFF742FCB4
:1019500049463046FFF728FC094B0A211F6403481B
:10196000BDE8F84FFFF7B8BD6C1100203802022027
:1019700070030120FFFF1000F4010220A9150010E0
:1019800000200B4000000B400146F0B50069EFF36A
:10199000108772B6D0E8CF5F0124002DFAD1C0E8DD
:1019A000454F002DF6D1BFF35F8FB1F902E04C69CE
:1019B0000EEB4E0CBEF1000F4FEACC0504EBCC0C45
:1019C0003DDB605B002648800869C0E88F6F87F3C5
:1019D0001088BCF80200CCE902230130C0F30E00ED
:1019E000012838BF0120059BACF80200CCF810306C
:1019F000069B40EA0E40CCF814300B69EFF31082DE
:101A000072B6D3E8CFCF0127BCF1000FF9D1C3E8FC
:101A10004C7FBCF1000FF4D1BFF35F8F8B88635311
:101A2000A1F804E00B69C3E88F6F82F310880122EC
:101A3000CB68097803F501538A405A60F0BD002352
:101A40000A69C2E88F3F87F310884FF0FF30F0BD7E
:101A500003464089B0EB214F37DD58690A1402EB89
:101A6000420210B500EBC2001C69EFF3108C72B695
:101A7000D4E8CFEF0122BEF1000FF9D1C4E84E2F18
:101A8000BEF1000FF4D1BFF35F8F428889B292B2EA
:101A90008A4207D000221B69C3E88F2F8CF310887D
:101AA000002010BD42F4004242800121002218694A
:101AB0009971C0E88F2F8CF310881C78DA6808467B
:101AC00002F50153A140596010BD0020704700BFCE
:101AD0002DE9F041861F41F1FF35B04271EB05035E
:101AE00038BF002682B038BF354604460F4600F0A6
:101AF000EDF8301A65EB0103012873F1000306DAF3
:101B00002046394602B0BDE8F04100F0E9B800F0E7
:101B1000DDF8864265EB010100290ADB0021174B45
:101B20003246009316482B460191FFF72DFF0028FF
:101B3000E6DB4FF0000C1348134A436A9D4204D879
:101B4000816AB142DCD29D42DAD11368EFF3108191
:101B500072B6D3E8CF8F5FF0010EB8F1000FF8D165
:101B6000C3E848EFB8F1000FF3D1BFF35F8F1368FC
:101B7000C3E88FCF81F3108820BFDEE7691500101E
:101B80006C11002000000B403802022038B50446DA
:101B90000D4600F09BF84FF0FF326FF00043201825
:101BA00045EB0101824273EB010438BF1946BDE8E1
:101BB000384038BF1046FFF78BBF00BF10B5044652
:101BC00000F084F84FF47A734FF0FF3C6FF000425E
:101BD000E4FB0301BDE81040844572EB01033CBF08
:101BE00060461146FFF774BFF0B506460D4683B058
:101BF000EFF30584E4B2002C35D1244F3A78F9682C
:101C000004328B6A51F82220D21AC31A934207D3A6
:101C100020BF1F4B586AA8421FD2002003B0F0BD5E
:101C200000F054F8864265EB0101002911DB194BE5
:101C30003846CDE9003432462B46FFF7A5FE011E9B
:101C400007DD134B5A6AAA4219D220BF0F48FFF78B
:101C5000FFFE0F4B586AA842DFD39B6A9E4209D809
:101C6000012003B0F0BD0A4B586A8842D5D39B6A65
:101C7000B342F5D2401B18BF012003B0F0BD9B6AF0
:101C80009E42E3D9AA42E1D1DFE700BF6C110020F8
:101C900000000B406915001010B4054B054C064AB6
:101CA000A04214BF1846581C5DF8044BFFF7B2B9A8
:101CB000D027012000800B40585E00100346416A87
:101CC0000A46986A596A8A42FAD17047034B596AA0
:101CD0000A46986A596A9142FAD1704700000B404F
:101CE000074A536A9942FCD8994207D1044B02E053
:101CF0005A6A914202D19A6A8242F9D3704700BF70
:101D000000000B4000EB400C4FEA8C0C0CF1804CB7
:101D10000CF5803CF0B51646DCF80420051FB2F542
:101D2000803F38BF4FF48032EDB238BFCCF804208A
:101D3000012D2AD94FF40067254C0CF5405217604D
:101D400054F82020B2B9DCF80020012D82EA4612B6
:101D500002F0E0020CF5805632602AD94FF400619F
:101D600044F820304FF480330CF500521160CCF869
:101D70000430F0BD6769B7FBF2FE0EF1010E0EEB09
:101D80004E0EBEF1030EFCD2DDE70129D2D10324B1
:101D90000CF540521460DCF80820D207FBD5DCF8C3
:101DA00000200B4C82EA461202F0E0020CF580564D
:101DB00032600122DCF800504D4005F0030535602B
:101DC00002FA01F1DCF808200A42FBD0C6E700BFA6
:101DD000D4270120014B53F820007047D42701205D
:101DE00070B4039D04682D0345EA03451B4B002C8A
:101DF000B3FBF1F3B2FBF3F61FDB194A194B904228
:101E000014BF4FF480424FF40042174C1A6003F5A0
:101E100080531A60A36832EA0303FBD1212200F544
:101E200040530433016086601A600268002AFCDABD
:101E30000822C5601A6070BC7047036803F03F0356
:101E40008B42DAD18368C3F30B03B342D5D1C368A5
:101E500003F4EE23AB42D0D1EDE700BF001BB70087
:101E6000008005400020024000000240012300EBFA
:101E70004000800000F1804000F584104160036064
:101E8000704700BF002370B5DB8A04460D46002270
:101E900042E800F2520254BF1021042144F25220C1
:101EA000984786462B462246F446BDE870400A21F4
:101EB0004FF48170604700BF0023DB8A002242E8B4
:101EC00000F2520201D4102118470421184700BF24
:101ED00008B5034608462BB193FAA3F3B3FA83F38C
:101EE00041F020001946FFF7CDFF00BF034AD2F8AA
:101EF0002838002BFBD0BFF35F8F704700000E40E7
:101F00000021044B044ABFF35F8F43F8041B934244
:101F1000F9D170470C080E402C080E4010B42F2049
:101F20004FF42A64054A064B06491460D0601960D4
:101F30005368002BFCDA5DF8044B704700800440C6
:101F400000A0044000B0FA00704700BF08B5014887
:101F5000FFF72CF87C5E001038B5054C054DAC42FF
:101F600004D254F8043B9847AC42FAD338BD00BFC2
:101F7000185D0010585D001010B40748074C084B5E
:101F8000084A094904601A608B6832EA0303FBD1EE
:101F90005DF8044B704700BF002002407F3BEFEF2D
:101FA00000300240F6FFF30300000240044BDB6CFC
:101FB000B3F5004F03D14FF48022024BDA6470472F
:101FC00000001150002011504FF0E022044BD2F8D5
:101FD000881D0B43C2F8883D10EE3004704700BFE7
:101FE000030330006FF06041044B054A19609368A9
:101FF000DB4333F06043FAD1704700BF003002404A
:102000000000024010B545F25320FFF755FFBDE830
:10201000104003460420184710B545F25320FFF73F
:102020004BFFBDE81040034601201847FFF790B86A
:1020300010B5054B054C4FF488721846A16803F0A3
:1020400055FDA06010BD00BF0000002000ED00E0C5
:10205000002370B52B4C82B0C4F88430FFF75EFFCC
:102060000122294BDA63636C012BFCD10321264A40
:10207000244B11639C6B012CFCD1022605252146C3
:102080000523224A22480096FFF7AAFE21462B4646
:10209000204A21480095FFF7A3FE00220420314684
:1020A0001E4BFFF72FFE2146284600221C4BFFF750
:1020B00029FE0022082011461A4BFFF723FE0022BA
:1020C00009201146174BFFF71DFE0022062011467E
:1020D000134BFFF717FE0022114B07201146FFF7A5
:1020E00011FE0420FFF776FE00240F4BA3FB003502
:1020F000AD0CE0B229460134FFF7B8FE062CF8D14A
:1021000002B070BD0000014000300140002F68594E
:1021100000000540008C864700800540001BB7008A
:1021200080D1F008006CDC0283DE1B4386B003B470
:1021300051FC0804CDE9020151FC0904CDE9040178
:1021400051EC0A04CDE9060103BCF047BDE800509C
:102150004EEC00C4BDE800504EEC01C4BDE8005098
:102160004EEC02C400BD000000B5FFF7DFFF02E047
:1021700010FE30F4F8D441EC100443EC112400EECE
:10218000010410EE010480EE200451EC10047047AD
:1021900000B5FFF7CBFF02E010FE30F4F8D441ECBD
:1021A000100443EC112400EE010410EE210480EE33
:1021B000200451EC3004704700B5FFF7B7FF02E090
:1021C00010FE30F4F8D410B541EC100443EC1124A7
:1021D00051EC040453EC0524A0FB024C5FF0000E0C
:1021E000E0FB03CEE1FB02CE4CEC20440024E1FBFB
:1021F00003E444EC30E480EE200451EC5004BDE8EC
:102200001040704700B5FFF791FF02E010FE30F478
:10221000F8D441EC100443EC112451EC2104A0FB50
:1022200001126FEA820252FB100052FB12F252FBC3
:102230001000A0EBD07C53EC04245CFB13F153ECB6
:102240001524A1FB022001FB030053EC4424A2EB64
:10225000000050FB1CF24FEA111312EB017043EB2C
:10226000E27140EA515020EA915020F0070053EC0F
:102270007524A0FB023C53EC752400FB03CC01FB4E
:1022800002CC53EC0424ACEB824C40EA5C70A0F12D
:10229000010041EC400480EE200451EC70047047D2
:1022A00000B5FFF743FF02E010FE30F4F8D440EC35
:1022B000700400EE010410EE210480EE200451ECC5
:1022C0003004704700B5FFF731FF02E010FE30F434
:1022D000F8D440EC600400EE010410EE210480EE1E
:1022E000200451EC3004704700B5FFF71FFF02E0F7
:1022F00010FE30F4F8D441EC800400EE010410EE3E
:10230000010480EE400410EE1304704700B5FFF79F
:102310000DFF02E010FE30F4F8D441EC800400EE32
:10232000010410EE010480EE400410EE3304704707
:1023300000B5FFF7FBFE02E010FE30F4F8D441ECEC
:10234000100443EC112400EE010410EE3004C0F33D
:102350000070704700B5FFF7E9FE02E010FE30F4B0
:10236000F8D443EC102441EC110400EE010410EE0B
:1023700030F48CBF01200020704700BF00B5FFF78C
:10238000D5FE02E010FE30F4F8D441EC100443EC2A
:10239000112400EE010410EE30F42CBF01200020C7
:1023A000704700BF00B5FFF7C1FE02E010FE30F439
:1023B000F8D441EC100443EC112400EE010410EEBB
:1023C00030F48CBF01200020704700BF9A4238BF14
:1023D00088547047704700BF2DE9F04F83B099468D
:1023E000DDE90DAB0F9B884611469A07074616D1CB
:1023F000DA453AD20C460D46ABEB0A060E442246AD
:102400004B46414620200134B847B442F7D1294613
:10241000BAF1000F08D1204603B0BDE8F08F0C469A
:10242000BAF1000F10D00E4655460C9B2E449A442C
:102430000191721B4B46013D41461AF8010D34468D
:10244000B847002DF5D101990F9B9B07E3D5651A7D
:10245000AB45E0D922464B46414620200135B847DE
:102460005D4504F10104F5D3D5E7BAF1000FDAD1E7
:102470000C46D0E72DE9F04F0F9FDDF824E017F070
:10248000020F0A9C9DF82C900E9DDDE90C8629D147
:10249000002D6FD1B44225D2202C07F0010B00F0A3
:1024A000128104F1FF3C4FF0300AF44401E0202C8B
:1024B0007AD00134A6420CF801AFF8D8BBF1000F76
:1024C00010D0AC420ED2202C74D004F1FF3C4FF05F
:1024D000300AF44401E0202C29D00134AC420CF83D
:1024E00001AFF8D117F0100F3AD017F4806F28D150
:1024F0001CBBB8F1100F00F0CA80B8F1020F00F059
:10250000D48030248EF800400124B9F1000F67D147
:102510007E0740F1AA802B260EF804600134CDE935
:102520000B57CDE909E4BDE8F04FFFF755BFFC06B6
:1025300040F189807C0535D42024A6426AD0AC4283
:1025400068D0B8F1100F00F08780B8F1020F5AD0B0
:10255000202CE4D0264601344FF0300C0EF806C093
:10256000202CD2D1CDE90B57CDE909E4BDE8F04FDD
:10257000FFF732BF17F0010B3ED0B9F1000F47D182
:1025800017F00C0F44D1B4429BD2202C89D1202DBE
:1025900010D8FC0657D57C0555D4202E00F0B98004
:1025A000202D10D02024CCE7BBF1000F00F0A58037
:1025B000202DBCD9FC0646D57C0544D4202E00F045
:1025C000A880202D3FD12C461F26B8F1100F7FD0B8
:1025D000B8F1020FC0D14FF0620C0EF806C0B7E799
:1025E0002D260EF804600134CDE90B57CDE909E43E
:1025F000BDE8F04FFFF7F0BEB442BFF473AF202C3C
:102600007FF44FAFD6E7202C89D026460134E2E78D
:10261000013DB8E7661ED8D1B8F1100F64D0B8F10B
:10262000020F7FF46EAF62268EF8006030264446BB
:102630008EF80160B9F1000F3FF46AAFD0E7B8F14E
:10264000100F7FF46CAF2024CDE90B57CDE909E4DE
:10265000BDE8F04FFFF7C0BEBE060ED4202CF2D06E
:1026600078260EF80460013472E73E077FF557AF15
:1026700020260EF80460013451E7202CE3D04FF0FF
:10268000580C0EEB040686F800C0013460E7BE0665
:1026900017D558248EF8004030248EF801400224CB
:1026A000B9F1000F3FF434AF9AE762248EF800408E
:1026B00030248EF801400224B9F1000F3FF428AF16
:1026C0008EE77824F2E7BBF1000F7FF462AF71E789
:1026D00017F0200F0CBF4FF0780C4FF0580CA61ECF
:1026E0000EF806C0013C35E7BC06EAD558248EF842
:1026F000004030248EF80140DDE717F0100F3FF462
:102700000EAF17F4806F9AD1202E7FF418AF1F26DA
:102710005BE734461F2658E700B9704701F036BA28
:102720002DE9F04F9FB09DED287BDDE92AA558ECFF
:10273000177B83461E460D91109243463A46384613
:1027400041468DED087B2C9CFFF7F6FD002840F0FC
:10275000D880384641464FF0FF32754BFFF726FED2
:10276000002840F0CE80384641464FF0FF326FF4EB
:102770008013FFF7F3FD002840F0C380DDE90878FF
:102780000022384641460023FFF7E8FD002840F0CC
:10279000C081CDE90A78DDE90A2390461F4614F48A
:1027A000806308BF4FF0060A139304F4006258EAEE
:1027B0000703119240F0C080002A00F0A2819FED33
:1027C0005A7B00278DED0E7B4FF00009BA45CCBF38
:1027D000AAEB070A4FF0000A4F46C8BF0AF1FF3ABA
:1027E00044F480644D4594BF4FF00008A5EB090800
:1027F00014F00203119304D0B9F1000F18BF4FF089
:1028000000083FB1DDE90A01DDE90E23FFF7FEFC18
:10281000CDE90A01DDE9080100220023FFF79EFD52
:1028200030B1DDE90A01024601F10043CDE90A2396
:102830009DED0A7BCDE902A8DDF834A024F4006305
:1028400004938DED007B334651465846109A00F0B4
:1028500097F98046B9F1000F4FD014F0200F0246CF
:1028600000F1010433460CBF652045205146D8478E
:1028700009F1FF3087EAE77C0DF1580900224B4649
:10288000DFF8B080ACEBE77C4FEAD77E01E0202A8E
:1028900010D0E246A8FB0C71C90801EB8107ACEB34
:1028A00047073037BAF1090F8C4602F1010203F8ED
:1028B000017BECD805230590069300200A230D9F89
:1028C000CDE90330CDE9012E33462246394658463C
:1028D000CDF80090FFF7CEFD119B80466BB1109BA9
:1028E000C41AA54209D9424633463946202001344C
:1028F000D847A54208F10108F5D840461FB0BDE809
:10290000F08F9DED087B33465846109A0D998DED5A
:10291000287BCDE92B54CDF8A8A01FB0BDE8F04F1F
:1029200000F02EB9AFF300800000000000000000AE
:10293000FFFFEF7FCDCCCCCCC7F30A50A0F2FF3025
:10294000FFF7B2FC8AA3D3E90023FFF739FC8AA37F
:10295000D3E90023FFF70CFCC7F31307CDE90E0101
:1029600047F07F51404600227B4B41F44011FFF776
:1029700013FC6BA3D3E90023FFF722FC02460B46AE
:10298000DDE90E01FFF7F4FBFFF7B2FC0746FFF7A6
:102990008BFC65A3D3E9002380468946FFF710FC32
:1029A00000226E4BFFF7E4FBFFF7A2FC034649460B
:1029B000404612935EA3D3E90023FFF701FC804653
:1029C00012988946FFF770FC5BA3D3E90023FFF759
:1029D000F7FB02460B4640464946FFF7DDFB024641
:1029E0000B4680468946FFF7EBFB42464B46CDE956
:1029F0000E0140464946FFF7BBFB0022CDE914011A
:102A0000DDE90E01564BFFF701FC0022554BFFF7A5
:102A1000AFFB02460B46DDE90E01FFF7F7FB002294
:102A2000514BFFF7A5FB02460B46DDE90E01FFF710
:102A3000EDFB42464B468046894600204FF08041E0
:102A4000FFF7AAFB02460B4640464946FFF790FBBC
:102A500002460B46DDE91401FFF7D8FB0022434B89
:102A6000FFF786FB129B002203F2FF3C4FEA0C5358
:102A7000FFF7A6FB80468946DDE90A0142464B4640
:102A8000CDE90E89FFF76AFC68BB4346494607F16A
:102A90006302C62A119A8CBF4FF005094FF0040952
:102AA000002A3FF49FAE0B433FF48EAEDDE90A01EE
:102AB00023A3D3E90023FFF765FC48B1DDE90A0150
:102AC00021A3D3E90023FFF749FC00287FF47CAE63
:102AD000BAF1000F3FF486AE139B002B3FF482AE99
:102AE0000AF1FF3A7EE600221E4B40464946FFF7B8
:102AF0008DFB0A4601460346CDE90E12013F114601
:102B0000C5E79FED137B17464FF004098DED0E7B53
:102B100068E608F100430A970B933CE6AFF30080A8
:102B200061436F63A787D23F71A379094F930A402E
:102B30001655B5BBB16B0240EF39FAFE422EE63FA7
:102B40002D431CEBE2361A3F0000000080842E412A
:102B500000000000000000000000F83F0000E03F1F
:102B600000002C4000002440000018400000F03F0E
:102B7000FB799F501344D33FB3C8608B288AC63F6C
:102B80002DE9F04F97B0DDE92089CDE90401DDE9B9
:102B9000224BCDE90623404642464B464946DDF8E6
:102BA00090A0FFF7C9FB002840F0C5814046494688
:102BB0004FF0FF326FF48013FFF7D0FB002840F096
:102BC0001D81404649464FF0FF32C14BFFF7EEFBF7
:102BD000002840F0E380B8A3D3E9002340464946EB
:102BE000FFF7E4FB002840F0CB80B5A3D3E9002336
:102BF00040464946FFF7B2FB002840F0C1804046FE
:102C0000494600220023FFF7A9FB002840F0E0809E
:102C10001AF480650D9000F0E980092C40F296814D
:102C20000EAB1A460C9330210023A4F109050133A1
:102C3000202B02F8011BA4EB030600F03A81AB4203
:102C4000F5D19FED9D7B8DED087B49464046FFF712
:102C50004FFB0446FFF728FB02460B464046494619
:102C6000FFF79AFADDE90823FFF7AAFA02460B46B6
:102C7000CDE90A23FFF74EFB0746FFF727FB024685
:102C80000B46DDE90A01FFF787FA02460B46CDE95C
:102C90000A2300228F4BFFF789FB002800F0DB801E
:102CA00001373846FFF712FBDDE90823FFF76AFB1F
:102CB00008B100270134002E40F0B1802046FFF714
:102CC000F3FA02460B4640464946FFF765FA0022F2
:102CD000804B06460F46FFF741FB40B93046394668
:102CE00000227C4BFFF762FB002800F015810C9B53
:102CF000691E7948194410E080FB0462C3EBA2030B
:102D000003EB8302A4EB420404F1300201351C46BC
:102D100001F8012F002B00F0AB80202D4FEAE47367
:102D2000EAD10AF00303012B1CD1BBF1000F19D02B
:102D30000D9B002B40F0F9801AF00C0F40F0F5804D
:102D4000AB4540F2D380202D0BD030220C996B1E66
:102D50000B4401355D4503F8012F00F08D80202DD7
:102D6000F7D12025DDE90623DDE904010C9CCDE93E
:102D700002BA01950094FFF72FFB17B0BDE8F08F62
:102D8000CDE92089DDE90623DDE90401CDE923BA97
:102D9000229417B0BDE8F04FFFF7C2BC4F4DCDF8FD
:102DA0008CA00AF0040ABAF1000F4D4C18BF2C4653
:102DB000DDE90623DDE9040120940CBF032404248B
:102DC000CDF888B0219417B0BDE8F04FFFF704BBF1
:102DD0004B46424600200021FFF7DEF901231AF49A
:102DE0008065804689460D937FF417AF9FED367B53
:102DF0000EAB06268DED087B0C9326E70424DDE957
:102E00000623DDE90401374DCDF88CA0CDF888B05C
:102E10002095219417B0BDE8F04FFFF7DDBA0C9B69
:102E2000681EDFF8C4C018440DE0ACFB0721C908D8
:102E300001EB8102A7EB42023032092F00F8012F8B
:102E400027D90F461D46202D05F1010306F1FF3657
:102E5000EBD120254BE70022DDE90A011D4BFFF7EE
:102E60007DFA00287FF427AF002F5AD1013722E7DF
:102E70000AF00303012B75D0202D3FF473AF0D9B97
:102E8000BBB32D2205F158036B4403F8202C013508
:102E900068E7202BDDD0AEB30C9A1E4415443022D7
:102EA00001E0B3422ED00133202B05F8012FF8D1D9
:102EB000CFE71D46C5E600BF0000000065CDCD414F
:102EC0000000000065CDCDC10000000080842E41CF
:102ED000FFFFEF7F0000E03F67666666D05E001090
:102EE000D85E0010E05E0010CDCCCCCC202D3FF49D
:102EF00039AF1AF0040F0DD11AF0080F3FF432AFBA
:102F00002022BFE72E2103F158026A4402F8201C58
:102F10005D1CECE62B22B5E7E3077FF5E8AE013454
:102F2000E5E6FA077FF5C7AEA0E70BF1FF3BAB453F
:102F30003FF609AFA0E70324DDE90623DDE904013C
:102F40000A4DCDF88CA0CDF888B061E7084B264635
:102F500003EBC40393ED007B0EAB8DED087B0025E6
:102F60000C9372E6BBF1000F86D0E1E6DC5E001048
:102F7000506000102DE9F04F9A469BB0249C964D6E
:102F80000B94964C0B1E18BF834625609AF80000E0
:102F9000934C0A9308BFA3460992002800F0BC8214
:102FA0004FF000090AE04A46099B0A9909F1010914
:102FB000D8479AF80000002800F0CE8025280AF1B2
:102FC000010AF0D10023524612F8010BA0F12001B2
:102FD00010290AD8DFE801F04009093C090909096C
:102FE00009090938093409093000A0F1300109291B
:102FF00040F28C802A2800F0F58000210C912E28C8
:1030000000F099800027A0F1680112292DD8DFE88F
:1030100011F057012C0051012C0045012C002C000F
:103020002C002C002C002C002C0027002C002C0045
:103030002C002C002C002700924643F00103C2E72D
:10304000924643F00203BEE7924643F00403BAE718
:10305000924643F01003B6E7924643F00803B2E706
:103060009AF8010043F4807301326728924600F217
:103070008280242840F2C680A0F12502422A00F274
:10308000C180DFE812F05F01BF00BF00BF00BF00DA
:10309000BF00BF00BF00BF00BF00BF00BF00BF0038
:1030A000BF00BF00BF00BF00BF00BF00BF00BF0028
:1030B000BF00BF00BF00BF00BF00BF00BF00BF0018
:1030C000BF00BF00BF00260145012601BF00BF00B1
:1030D000BF00BF00BF00BF00BF00BF00BF00BF00F8
:1030E000BF00BF00BF00BF00BF00BF00D301BF00D3
:1030F000BF00BF00BF00BF00BF00BF00BF00BF00D8
:10310000D3016701D301260145012601002100E01A
:10311000013201EB810100EB410110789246A0F1F0
:103120003004092CA1F13001F2D92E280C9102F1C2
:1031300001027FF467AF9AF801001146A0F1300652
:10314000092E43F4806340F231812A2800F03E8149
:1031500092460027013256E74C46099B994501D318
:1031600003F1FF394A460020099B0A99D8472046B7
:103170001BB0BDE8F08FA0F16902D2B20F2A41D88E
:10318000012649F2410196400E4040F001810A2A91
:103190003FD0072A36D10B9C54F8042B002A00F0AC
:1031A000288143F021010DF1480E704603E0202EE6
:1031B00000F029811A4602F00F052B46092D94BF15
:1031C000303337330F2A00F8013B06F101064FEA8E
:1031D0001213ECD817E100BF752F00103000022049
:1031E000D52300100B9C9AF8010054F8045B92461A
:1031F000002DBDBF694243F002030C910C950B9466
:103200000132FCE64A46099B0A9909F10109D847AF
:10321000CFE60B9951F8048B98F800201046002F48
:1032200040F0E18072B16FF0010C0CF1010C4646E8
:10323000C44401E0664503D016F8014F002CF9D1D3
:10324000A6EB080613F4806C02D0BE4228BF3E46AF
:1032500013F0020400F08781002A00F02B81BCF1FA
:10326000000F00F041810B940D964A46DDE90954A8
:103270000E464F4408E02B462146D84718F8010F68
:1032800009F1010910B14A464F45F4D131460B9C72
:103290000D9E002C40F00E810B918AE69AF80100F9
:1032A0006C287FF4DFAE9AF8020043F440730AF111
:1032B0000302DAE69AF8010043F400730132D4E61F
:1032C0009AF80100682800F0208143F08003013261
:1032D000CBE6672800F0E780472800F0008145280A
:1032E00000F0FF800B9C04930C9B0734CDE9027324
:1032F00024F007031C46DDE90931F4E802674A4679
:103300005846CDE900670B94FFF70AFA814650E66C
:1033100046280B9C08BF43F0200304930C9B073402
:10332000CDE9027324F007031C46DDE90931F4E816
:1033300002674A465846CDE900670B94FFF720FC28
:10334000814636E64A462520099B0A9909F101097A
:10335000D8472EE60B9A9C0702F1040709F10106F3
:1033600040F1E6801078099B4A460A99D8470C9BA1
:10337000012B40F22C81DDE90954994432462B4659
:10338000214620200136D8474E45F7D10B9710E64D
:103390006F2800F08B8040F26581782800F008816A
:1033A0004FF00A0823F01003C44647E0002707EB5C
:1033B000870700EB4700A0F1300711F8010FA0F1DB
:1033C0003002092AF3D98A464A1C1CE60B9C9AF85B
:1033D000020054F8047B0AF1020A0AF101020B947C
:1033E00027EAE7770FE6002A3FF42CAF07F1FF3C0E
:1033F0001BE723F0100113F4806241F021013FF438
:10340000D2AE0DF1480E08231020059300234A4642
:10341000CDE9023006915846DDE90931CDE900E6F3
:103420000497FFF727F80B948146C2E5582879D016
:10343000622840F051824FF00208C44613F48060C5
:103440006DD123F00C0313F4007240F0C2800B998D
:1034500004310D9113F4807140F02E825E060B9AB8
:1034600040F1AA801278002A40F0DA8023F010039D
:10347000002800F0D58011460DF1480E06930C9BF4
:10348000CDF80CC0CDE90473019100234A460293A4
:103490005846DDE90931CDF800E0FEF7EBFF0D9B62
:1034A00081460B9385E543F400631BE74FF0080862
:1034B000C446C3E70C9B4C46B3427FF6EDAE0F46C5
:1034C0004B44A3EB0609DDE909652246334629464C
:1034D00020200134D8474C45F7D13946DCE643F487
:1034E000006343F02003FDE60F460B94DDE9095429
:1034F0004A462B462146D84718F8010F09F1010921
:103500000028F5D139460B9CC3E69AF8020043F037
:10351000C0030AF10302A8E5044681461DE623F034
:103520000D0390E74FF0100843F02003C44685E7F1
:103530000C9B012B45D9DDE909544E4609F1FF38B2
:10354000984432462B46214620200136D84746452E
:10355000F7D10C9B324699440B9B1878DDE9093171
:10356000D8470B9725E50C9BB34240F2EE81CDE99D
:103570000D48DDE9095488464B449E1BCDF82CC00C
:103580004A462B462146202009F10109D847B1457A
:10359000F6D14146DDF838800C9BDDF82CC00D9C3F
:1035A00098F800205E1C1046002A7FF458AE73E69F
:1035B0004FF01008C44641E71D064CBF1288126840
:1035C00051E713464A461878DDE90931D847B14634
:1035D000DCE60B9C073424F007042246656852F8A9
:1035E000084B0B9254EA050240F02C8123F01003A3
:1035F000002800F0278100260DF1480E06930C9B51
:103600004A46CDE904730023CDE900E6CDF80CC0AD
:1036100002935846DDE90931FEF72CFF8146C8E4E4
:1036200013F0200F14BF412061200DF1480E7646A3
:10363000A0F10A0803E020293FF420AF2246B2FBA4
:10364000FCF40CFB1425E8B2092D00F130058ABF0B
:103650004044E8B2C0B2624506F8010B01F1010135
:10366000E9D20BE723F0100269280D9240F06F8138
:1036700013F4806204D04FF4806223F011030D93A1
:103680000D9B13F4007640D10B9B03F104080D9BB6
:1036900013F4807040F09880590640F1C6800B9B6F
:1036A00019780C46CB0F002900F0B98022460DF1A5
:1036B000480E74461646DFF8A0C201E020280FD05D
:1036C0003546ACFB0621C90801EB8102A6EB42029C
:1036D0003032092D0E4600F1010004F8012BEDD81F
:1036E0000D9ACDE9010306920C9ACDE904720A23E2
:1036F0004A4603935846DDE90931CDF800E0FEF76C
:10370000B9FECDF82C80814653E40B9C073424F09D
:10371000070421460846636850F8081BDC0F0B902D
:1037200051EA030000F0C3800A46191E48DB134625
:103730000DF1480EF4460026CDE90E94DFF818820C
:1037400001E0202E2DD05A1842F10002A8FB0259A8
:1037500029F0030505EB9905521B1C469B1A61F1E4
:10376000000508464FF0CC3101FB03F108FB0511C1
:10377000A3FB08531944052305F00109A9FB0339EC
:103780009B180A2C03F130034FEA550570F1000035
:103790000CF8013B06F1010645EAC1734FEA5101FD
:1037A000CFD2DDE90E940D9B4A4606930C9BCDE9E2
:1037B0000164CDE904730A23CDF800E0039328E700
:1037C000524261EB4101B2E70B9B1968CB0F002914
:1037D00000F0AB8081EAE172A2EBE1720DF1480EDC
:1037E0007046DFF874C101E0202E10D01546ACFB06
:1037F0000241C90801EB8104A2EB440404F1300248
:10380000092D00F8012B06F101060A46ECD80D9AA5
:10381000CDE9016306920C9ACDE9047267E7002AAC
:103820003FF445AF0DF1480E5AE713F0800F0B9BA4
:1038300000F08180B3F9001081EAE174A4EBE17437
:10384000A4B22FE713F0200F14BF412261220DF123
:10385000480E0A3ACDE90D97CDF844B000267746D8
:10386000F3469146CDE90F3C03E0202E17D00446E5
:103870000D46294642460023204602F039FAD2B2CC
:10388000092A02F1300388BF02EB09034445DBB289
:1038900075F1000507F8013B06F10106E5D2DE46A9
:1038A000DDE90D97DDE90F3CDDF844B0A6E6002A1E
:1038B00047D1134611463BE70B990968A1B923F09C
:1038C000100388B10DF1480E06930C9BCDF80CC087
:1038D000CDE904730192D8E513F480627FF4CBAE96
:1038E00023F010030D93CBE613F0200F14BF4120FB
:1038F00061200DF1480E7646A0F10A0802E0202A68
:10390000E2D02146B1FBFCF40CFB1415E8B2092D02
:1039100000F130058ABF4044E8B2C0B2614506F804
:10392000010B02F10102EAD2CEE7002A3FF456AFC2
:103930000DF1480E6BE7196881EAE174A4EBE174BC
:10394000B0E600260DF1480E2DE701362BE64FF0CC
:103950000A081346C44671E5CDCCCCCC84460CB4E1
:1039600010B584B006AC54F8043B0A460094614696
:1039700004480394FFF7FEFA04B0BDE8104002B01B
:10398000704700BFCD23001010B5094B84B01C68F0
:103990004CB1034600914FF0FF3203A90548A04700
:1039A000012004B010BD00F033F9204604B010BD72
:1039B000300002201927001000BEFDE708B5FFF710
:1039C000FBFF00BF38B5064C064DFEF7C5FAAC420A
:1039D00004D254F8043B9847AC42FAD338BD00BF38
:1039E000585D0010645D00100368084611461847D2
:1039F000437D2DE9F04781460F461646002B43D004
:103A0000002A3BDD037D00204D1E014615F8012FE5
:103A1000DFF884800A2A01F101040ED0A6421CD0EE
:103A20002B782146A3F10D03B3FA83F315F8012F88
:103A30005B090A2A01F10104F0D1002BEED1814289
:103A4000A1EB000138441BDC02214046D9F80030CC
:103A50009847A64208D02046E2E7864204DD311AA4
:103A6000D9F8003038449847374417F8013CA3F19F
:103A70000D03B3FA83F35B0989F81430BDE8F087CE
:103A8000D9F800309847DFE73846D9F800301146BA
:103A9000BDE8F047184700BFA06000102DE9F047CF
:103AA00082B00D46924699460746FEF70FF94FF051
:103AB000FF366FF000442F4A821841F1000396420E
:103AC00074EB03013CBF324623462B4802F01CF93D
:103AD0006B1C804603D1384602F07EF80546274B22
:103AE000274E1C68274BB9F1000F18BF1E46B4B112
:103AF000BAF1000F1AD1DFF8909001E0246974B197
:103B00002368002BFAD0D9F800300BB19C42F5D1D4
:103B100020462A463946B0472469002CF0D1B8F136
:103B2000000F1FD1284602B0BDE8F0874FF00A0A07
:103B3000DFF8549002E02469002CF0D02368002BB9
:103B4000F9D0D9F800300BB1A342F4D12A46394656
:103B50002046B047012220460DF107018DF807A04D
:103B6000B047E8E7044802F0C7F8284602B0BDE8CD
:103B7000F08700BF40420F00A8110020082A012052
:103B8000E9390010F139001010FC0120F0B583B0C4
:103B900006468DF80700FEF799F84FF0FF356FF0F5
:103BA0000044174A821841F10003954274EB030167
:103BB0003CBF23462A46134802F0A6F8124B07469C
:103BC0001C689CB1114D01E024697CB12368002B75
:103BD000FAD02B680BB19C42F6D1204601220DF1A0
:103BE0000701FFF705FF2469002CEFD117B9304614
:103BF00003B0F0BD034802F07FF8304603B0F0BDDB
:103C000040420F00A8110020082A012010FC0120CA
:103C100038B5044601F0E0FF012305461A46204668
:103C20002946FFF73BFF084B1C682CB163682BB19A
:103C300098472469002CF9D1284638BD2469002C06
:103C4000F4D1284638BD00BF082A01202DE9F047ED
:103C500089460546FDF7C2F9012399F8042099F930
:103C600005C005F12F4EDFF8D8800EF5600E9340A9
:103C70004FEA1E5EBCF1000F58F82E7003F1FF33BF
:103C800046DBC2F120018C45644631DC03FA0CF1BD
:103C900039422DD16646D5F868A199F80710BAF1D6
:103CA000000F2CD0C9072CD4BCF1000F01DB6645F6
:103CB00027D1B3401F423CD1D9F8001082B1B4469D
:103CC00001EB420931F8022B0CF1120AB2F5005F48
:103CD00038BF921949450CF1010C45F82A20F1D161
:103CE0003B4348F82E30FDF78BF92046BDE8F087BE
:103CF0004FF0FF34FDF784F92046BDE8F08749070F
:103D0000D2D56FF00A04FDF77BF92046BDE8F087B5
:103D1000D2F120040DD403FA04F13942264603D12E
:103D2000B9E739422646B6D0013C661C03FA04F1D5
:103D3000F7D16FF00804FDF763F92046BDE8F0877E
:103D4000F404012010B50446FDF748F9002304F1FE
:103D50002F42084902F56002120D41F8223003F1AA
:103D6000120244F822300133202BF8D1BDE8104074
:103D7000FDF746B9F40401202DE9F041D0F868417F
:103D80009DF81860121B1F2A38D84EF29F044EF27D
:103D900080054FF4003801EB410C002E18BF25467A
:103DA00000EBCC0404F5435400EBCC0C052BDCF801
:103DB000DC704FEA410EDCF8CC60C4F80C800CD902
:103DC0005401053B44F0A0540532052BCCF8DC40EF
:103DD00002F01F02CCF8D850F2D8714400EBC101B8
:103DE0000020520142EA8363C1F8DC30C1F8D850A8
:103DF000C1F8DC70C1F8CC60BDE8F0816FF0040060
:103E0000FAE700BFF0B5012504688D4024EA0504F7
:103E10000460B3B3D3E901561F68DC6801EB4103CA
:103E200000EBC303C3F8C8704FEA410CC3F8D0607D
:103E3000C3F8CC50C3F8DC400CEB01034FF0013564
:103E400000EBC30C4FF0004600EBC30E01230EF550
:103E5000865E0C1D01F108078D40CEF8106003FA54
:103E600004F4CEF8106002F01F028560BB4000F53C
:103E7000005004600EF1100E03600020CCF8D82032
:103E8000F0BD4FF480374FF440264FF4F83501EB86
:103E9000410400EBC404C4F8C8704FEA410CC4F8F4
:103EA000D060C4F8CC50C4F8DC30C5E710B5054C80
:103EB00082B001460F23002200940348FDF7D6F894
:103EC00002B010BDE85E00104002022070B500F0A4
:103ED0002BF90C2340251B4CFF220E201A49A36707
:103EE000FDF7A8F9194B002118462A4601F094FD68
:103EF0000346002180200126154A58849A60843A9E
:103F000059605E701D831D87C2F88410C2F880104E
:103F100002F58072DA60DA62803A83F8211083F861
:103F20003B1059629A6201F0F3FE4FF000504FF4DB
:103F300080320849084B2664E064C4F89010DA64C3
:103F400070BD00BF000011505D0300202CFC01205B
:103F50008400105010D001000020115001210E20CB
:103F6000FDF722B900220248114600F0FDB800BF5B
:103F70004CFC0120044B197021B14FF40032034B6B
:103F8000C3F89020704700BF430202200020115068
:103F90000B785B0602D14B78052B00D070474B881D
:103FA000014ADBB213607047000011504FF0000C63
:103FB0002DE9F0418878354D00F07F025600CF782A
:103FC0008B8806EBD01105EB4111C4098870C7F34B
:103FD0000100C876C3F30A0384F0010081F803C02E
:103FE0000B83487007F00307D10084BB28480431D5
:103FF00005EB821E01EB0008CEF8088041F800C0F6
:1040000082B32449D2001144CEF8041022483F3331
:10401000016823F03F03022F204A08BF5B000B44D6
:10402000036081EA02085340321905EB4212B3F5EE
:10403000805FD16027D8264405EB46156B6848EAB7
:10404000876242F0004201201A60BDE8F081DFF88B
:1040500040E010B2714405EB8218C8F828104EF801
:1040600030C042B900230E4A05EB44140120E2603F
:104070006360BDE8F081D20002F1A04202F5801237
:10408000C8F82420C2E7FDF761FFD4E72CFC01202B
:104090008000105004001050D80102200000105081
:1040A0000001105001F034BE8C4608B51146074897
:1040B0001A460CF07F034FEADC1C0CEB430C00EBC0
:1040C0004C1000F051F8012008BD00BF2CFC01206D
:1040D000CB0911F07F0103D1064AC3F102009066BB
:1040E000054803EB41034FF40062002100EB43104D
:1040F00001F006BE002011502CFC012011F07F03BE
:1041000000D17047002210B4C809064C00EB4300F0
:1041100004EB40136FF4006118465DF8044BDA704D
:1041200001F0EEBD2CFC01204FF0805209480A49F5
:1041300008B50A4B02600A609968C94311F08051C2
:10414000FAD14FF48052064801F066FC0922054B73
:104150005A6708BD002002400030024000000240C3
:10416000000010500000115000234FF0010C10B55A
:1041700080F81AC08282C3820161044601F0A8FD62
:1041800020B14FF40032074BC3F89020204601F0D5
:10419000ABFD10B10123237710BD2046BDE81040D0
:1041A00001F09EBD00201150002070472DE9F04124
:1041B0004FF000081C4D044642462B781B4F1C4E06
:1041C0000DE0336813EB421325D0DB682046984797
:1041D00008F101082B785FFA88F2934206D39342E4
:1041E000A2EB0303EDD807EB4313EEE7114C542287
:1041F0000021204601F010FC4FF0FF33251D6360C5
:10420000C5E90133EB6004F114002022BDE8F04160
:10421000FF2101F001BC4FF0E023D3F8F03DDB07B4
:1042200000D500BEBDE8F08142020220A46000106B
:1042300018030120D8030120704700BF704700BF5A
:10424000002070470020704700207047704700BF73
:10425000704700BF704700BF704700BF024B18781F
:1042600000F00100704700BFD80301202DE9F8439A
:104270002B4E3378FF2B02D00120BDE8F8830021BC
:1042800054220546274801F0C7FB0022264C274B45
:1042900020461A70FDF74CF9254B26481C60264C29
:1042A000FDF754F9204601F073FB244A244B1460B7
:1042B000244C5BB32046AFF30080234B2278186078
:1042C0004FF00009DFF884804B461F4F0DE03A683D
:1042D00012EB431311D05B687BB1984709F10109D8
:1042E00022785FFA89F39A4212D39342EFD39B1A52
:1042F00008EB43135B68002BEFD14FF0E023D3F8BA
:10430000F03DDB0700D500BE0020B6E72278D7E7F6
:1043100028463570FFF7DAFD2846FFF71FFEABE7AA
:10432000A0110020D80301209003012044020220A4
:104330002C04012098110020841100203004012059
:10434000000000004202022018030120A4600010B7
:104350002DE9F04FDFF8ACA28BB09AF80030FF2BBC
:1043600000F0E880A04CA14DDFF894B2A04E276881
:104370007B69EFF3108272B6D3E8CF0F01210028DA
:10438000FAD1C3E8401F0028F6D1BFF35F8FBA61AE
:10439000384607A901F04AF900237A69C2E88F3F3D
:1043A000BB6983F31088002800F0C4809DF81D309D
:1043B000013B072B00F26A83DFE803F0A1AB8F9784
:1043C00088350A04089B002BD1D009989847CEE77E
:1043D0009DF8201001F07F0705EB470000EBD1109E
:1043E00090F8343023F0010380F8343090F8343002
:1043F00023F0040380F83430002F00F09E80027D0B
:104400009BF800309A4280F08D807A4B1B6813EB4A
:10441000421300F088809F699DF82120099B9DF838
:104420001C00B847A3E73378002B7CD03378013BDE
:10443000DBB23370337803F0FF00002B97D16B4F62
:104440009DF81C903B7843F001033B7097F83430A3
:1044500060F3000387F8343097F8343060F3820358
:1044600087F8343097F8353060F3000387F835303B
:1044700097F8353060F3820387F8353000F01AFC86
:104480009DF8203003F06002602A66D0402A76D082
:1044900003F01F03012B00F0B780022B7BD0002B11
:1044A0005BD1202A00F0DE81002A56D19DF8213010
:1044B000092B52D8DFE813F0A50197015100B6018E
:1044C00051008A015F0151005401E7002B78D907A0
:1044D0007FF54DAFFFF7C0FE49E7EB78DA077FF5D0
:1044E00046AF0898FFF7AAFE41E72B78D8077FF57B
:1044F0003EAF2878C0F3C000FFF7ACFE37E79DF869
:104500001C00FFF753FE00F0CBFB9DF82030AB7092
:104510002DE79DF81C00FFF749FE00F0C1FBFFF7F7
:1045200097FE24E711D04FF0E023D3F8F03DDC07ED
:1045300000D500BE0BB0BDE8F08F099B9DF821208F
:104540009DF81C0000F0CAFB11E72B4B63E7FCF75A
:1045500099FC0246002840F07C814FF0E023D3F81C
:10456000F03DDF0700D500BE9DF81C000021FFF7DD
:10457000AFFD80219DF81C00FFF7AAFDF7E61F485C
:1045800000F098FB0121484608AAFFF70DFE00281D
:104590007FF4EDAEE8E79DF8241011F0700FDCD148
:1045A000174B01F07F08187807EB480303EBD11392
:1045B00093F814C04FEA480884454FEAD11350D30A
:1045C00040F06D810C480190002A00F06C81019F41
:1045D000786900F06FFB012148467B6908AA98477B
:1045E00000287FF4C4AEBFE730040120D8030120C7
:1045F0004402022018030120A4600010A941001009
:1046000042020220A01100209DF824300F2BABD8CD
:10461000B04A3B441B79127893422ED3A4D1AE4FBB
:10462000786900F047FB012148467B6908AA984752
:1046300000287FF49CAE9DF8203013F0600793D1E2
:104640009DF821300A3B012B8ED800F033FB9DF8FA
:1046500021300A2B00F0FB81484608A900F0B0FA8F
:1046600085E69E48006800EB4C100190002A00F09F
:104670001A8100283FF478AFA9E7984A176817EB2A
:104680004317CDD170E77B789DF82280984500F0E4
:104690005A817B78002B40F0C68187F80180B8F101
:1046A000000F00F04E8108F1FF30C0B2FCF7EAFBCA
:1046B0000146002800F064814378022B40F06081BD
:1046C000C2793878C2F340131B01C2F3801220F084
:1046D000300043EA421303433B704B88CDF80C9003
:1046E000CB1801930931019B8B4240F2AB814B788F
:1046F0000B2B00F0B6814FF0010C042B40F04081F1
:104700004FF00009019BC8465B1A9BB20293714BA4
:10471000CDF810C01B781BE0704B1B6813EB4813DF
:1047200000F02E81029A1B6903980591984708288A
:104730000246059909F1010903D9029B834280F0E1
:104740000781644B5FFA89F81B784345C0F01881F4
:104750004345A8EB0303DFD85F4A02EB4313E1E7CD
:104760007B7848468DF81A300DF11A02012308A90A
:1047700000F040FAFBE5BDF82200030A013B020A03
:10478000C0B20E2B3FF6F0AE01A151F823F000BFEE
:10479000B149001041480010ED4900106945001072
:1047A00069450010CF4900104148001069450010CC
:1047B0006945001069450010694500106945001001
:1047C0006945001069450010A349001008A800F0D1
:1047D00077FA48469DF82210FFF7C4FB3B7843F078
:1047E00002033B70C3E5BDF82230012B7FF4BCAE61
:1047F0003B78484623F0080308A93B7000F0E0F935
:10480000B5E548463B789A0802F00202C3F340132C
:104810001343ADF81A300DF11A02022308A900F073
:10482000E9F9A4E5BDF82230012B7FF49DAE3B7879
:10483000484643F0080308A93B7000F0C1F996E52B
:10484000022A3FF484AEFFF7FFFC024600283FF443
:104850008BAE4846538808A900F0CCF900287FF4B5
:1048600086AD81E69DF824300F2B3FF67DAE194AC8
:104870003B441B791278934227D2184A176817EBEA
:1048800043173FF471AE786900F014FA01214846ED
:104890007B6908AA984700287FF469AD64E6002A7E
:1048A0007FF462AE01929DF821C00CF0FD02012A56
:1048B00016D0BCF1000F7FF450AEB844434493F8D7
:1048C00034304846C3F34003A3E77FF44DAE024FB4
:1048D000D9E700BF42020220A460001018030120A3
:1048E000BDF82220BAB9BCF1010F9AF8000000F01F
:1048F00085800293FFF7ECFB029BB844434493F896
:10490000342042F0020283F8342093F8342042F03D
:10491000010283F83420019B002B3FF428AD586935
:1049200000F0C8F9019B01215B6908AA4846984735
:10493000002000F0BFF997F83530DB073FF517ADE1
:104940008AE6FFF785FC484608A900F039F90EE52C
:10495000DDF810C0BCF1000F00F08980887800EB12
:104960000C03DBB203E098428CF804807FD007EBA5
:10497000000C9CF804E00130BEF1FF0FC0B2F2D091
:104980004FF0E023D3F8F03DD90700D500BE4FF03B
:10499000E023D3F8F03DDA0700D500BE00237B709A
:1049A000E2E5FFF74DFC024600287FF452AFDBE55D
:1049B000FCF764FA024600283FF4CFAD48461223C4
:1049C00008A900F017F900287FF4D1ACCCE5FFF777
:1049D00039FC024600283FF4C7AD4846137808A9C1
:1049E00000F008F900287FF4C2ACBDE5BDF8241042
:1049F000FCF74CFA02460028EFD1B5E5CDE90232CA
:104A0000FFF77CFB029BB844434493F83410039AAD
:104A100062F3410183F8341093F8341062F300011B
:104A200083F8341077E700214846FFF7A3FA484699
:104A3000FFF738FBBB7848460193FFF7B7FB019BB4
:104A4000BB702AE6DDF80C90FFF700FC7BE74846D8
:104A5000012308A90DF11A028DF81A7000F0CAF8A6
:104A600085E40B7891F803C019444B7845E643463A
:104A70000B480492029100F091FB0A4B02991B78BB
:104A8000049A43451144BFF42EAE79E74FF0E0237A
:104A9000D3F8F03DDB077FF56AAC00BE67E400BFEA
:104AA000EC0301204202022038B50E4B1D788B78B2
:104AB00013F0700F08D04FF0E023D3F8F03DDB0780
:104AC00000D500BE002038BD074B0C46084699783B
:104AD00000F032FB0028EED021462846BDE83840E1
:104AE000FFF764BAA0110020D80301200B46064A44
:104AF00006481168DA09343203F07F0302EB4303FE
:104B0000184400F0D3BA00BF2C040120D8030120C0
:104B10000B46064A06481168DA09343203F07F036F
:104B200002EB4303184400F0EBBA00BF2C04012051
:104B3000D803012010B5194C01F07F0E04EB4E0490
:104B400004EBD11494F834C015481CF0010F04F1A3
:104B50003004007808D04FF0E023D3F8F03DDA07B6
:104B600000D500BE002010BD94F804C04CF0010C2C
:104B700084F804C0FFF798FA0028F4D14FF0E02140
:104B8000227960F300022271227960F3820222719D
:104B9000D1F8F03DDB07E5D5E3E700BFD8030120FE
:104BA000A0110020054B01F07F0203EB420303EB51
:104BB000D11191F8340000F001007047D8030120B2
:104BC00030B50B4C8C46A64605460868496800235C
:104BD000AEE803009CF800102846C943C4E902333C
:104BE000BDE830401A4601F08001FFF7A3BF00BFC7
:104BF0001C0301202DE9F041274F4FF00008BE466D
:104C00008C46064608684968BA60AEE80300A7F813
:104C10000E801546BCF80620934228BF1346BB8180
:104C20009AB11C462BB3DDB197F90030402C28BF58
:104C30004024002B28DB414623463046174AFFF725
:104C400079FF68B10120BDE8F0819CF8001013469F
:104C5000C943304601F08001FFF76CFF0028F1D115
:104C60004FF0E023D3F8F03DDB0700D500BE002075
:104C7000E9E71A46397801F0800123463046FFF70C
:104C800059FF0028DED1EBE722462946034800F011
:104C90002DFF8021014AF0E71C0301209803012029
:104CA0000022034BC3E90022C3E902221A617047C4
:104CB0001C030120014B1861704700BF1C03012039
:104CC00030B40246044C0025234600685168C4E90C
:104CD000025530BC03C370471C03012070B53C4C27
:104CE000C90922780646B1EBD21F1D4682B017D003
:104CF00053B14FF0E023D3F8F03DDB0702D400209E
:104D000002B070BD00BEFAE72146FFF741F9236902
:104D10001BB12246032130469847012002B070BDE6
:104D200094F90030A068002B05DB0028E7D02A4664
:104D3000284900F0DBFEE089A168E388284480B2BE
:104D400029448342E081A16016D03F2D14D9A28965
:104D500094F90040131A9BB2402B28BF4023002C2B
:104D600026DB90424FF0000130D01A4A3046FFF760
:104D7000E1FE0028D1D1BCE7236923B102213046EE
:104D8000134A984758B121780023C94330461A4640
:104D900001F08001FFF7CEFE0028BED1A9E7014651
:104DA0003046FFF795F980213046FFF791F9B4E7D7
:104DB000904208D01A460748019300F097FE8021E0
:104DC000044A019BD2E780210022CFE70A46CDE7C3
:104DD0001C0301209803012008B10020704708B58A
:104DE000014800F001FC08BDB025012008B10020F9
:104DF000704713460A46014900F064BBA82501200C
:104E0000134608B1002070470A469BB2014900F0E2
:104E10008BBA00BF8405012008B10020704701490A
:104E200000F04ABA8405012008B10020704701490A
:104E300000F0CABA8405012070B5154C84B042F266
:104E4000CC220021204600F0E7FD402500234FF44E
:104E500000721049261D8DE84600A1F124001A4673
:104E60001946039500F0C6F900234FF4005104F1F0
:104E70004400CDE9020504F1A8000191009001224F
:104E8000194604F1840000F0B5F904B070BD00BF0C
:104E900000050120CC25012008B5044800F0D6F912
:104EA000034800F0D3F9012008BD00BFA825012068
:104EB00084050120002310B5054C064804F88C3BFE
:104EC00000F066FD2046BDE8104000F061BD00BF67
:104ED00000050120B02501202DE9F84F4B79FF2B6B
:104EE00002D00020BDE8F88FDFF810810C4608F5ED
:104EF00000570B7897F8A9100029F2D198F885503F
:104F0000002DEED1A17804EB030B88F80010217975
:104F1000002943D006460BEB020907F1B00A9BF8C3
:104F2000011005290BD0D94502D837E0CB4535D241
:104F30009BF800108B449BF801100529F6D1D94548
:104F40002CD959463046FFF7AFFD002847D09BF8D3
:104F50000210C90927D1504600F01AFD9BF8021033
:104F600097F8A80087F8A910BBF80410C1F30A014C
:104F7000A1F50071B1FA81F1490961F3410087F8A7
:104F8000A8001B49304600F035FA40B39BF80010EA
:104F9000207901358B44E9B28842C0D8ABEB0403D9
:104FA00098B2BDE8F88F134800F0F2FC9BF802C0FD
:104FB00098F884E088F885C0BBF804C00E49CCF3AB
:104FC0000A0CACF5007CBCFA8CFC4FEA5C1C6CF360
:104FD000410E002088F884E000F06EF9D6E74FF02B
:104FE000E023D3F8F03DDB077FF57BAF00BE78E729
:104FF000A82501208C050120840501200005012041
:1050000070B51C4C064604F5005C9CF8A9E01D46F2
:105010008E4512D094F885308B420CD1164B1BB1C3
:105020000020A9B2AFF300803046144900F044F9E3
:10503000C8B1012070BD002070BDBCF8B4305BB9B0
:105040000F4B23B100200F49AAB2AFF300803046C6
:105050000D4900F0CFF9ECE7DCF8AC10AAB20B4830
:1050600000F0EAFBECE72A463046044900F0F0F88D
:10507000DFE700BF000501200000000084050120DB
:105080000000000004050120A8250120B025012012
:1050900008B50020FFF7EAF800B108BD4FF0E023A3
:1050A000D3F8F03DDB07F8D500BE08BDF8B50378AE
:1050B00013F001041AD1037805465A07C3F3800799
:1050C00001D52046F8BD0E464FF0FF31304600F0C6
:1050D00003FE2B7813F001040BD12B785B0709D466
:1050E0002B78012443F004032B7003E000242046B6
:1050F000F8BD3C46304600F0FFFD2046F8BD00BF3D
:1051000070B50C4605464FF0FF31204600F0E4FD37
:105110002B78C3F380065B0708D52B7813F00103C7
:1051200011BF00262A7863F382022A70204600F01D
:10513000E3FD304670BD00BFC378828803F00300F2
:105140000228C2F30A021FD0032803D001280AD084
:1051500000207047022914BF40234FF4806393421C
:1051600009D301207047022940F2FF3308BF4FF4F2
:1051700080639342F6D24FF0E023D3F8F03DDB0793
:10518000E6D500BE00207047022902D0402AE8D9A7
:10519000F1E7B2F5007FE4D0EDE700BF0A449142A9
:1051A00026D291F801C0BCF1050F05D091F800C0DE
:1051B00061448A42F5D8704700B591F802C00CF0FE
:1051C0007F0E00EB4E0E4FEADC1C0EF80C3091F80F
:1051D00000C061448A4209D991F801C0BCF1050FB1
:1051E000EBD091F800C061448A42F5D85DF804FB29
:1051F000704700BF2DE9F0418E4682B0009390F8D1
:1052000000C0089EBDF824706EF3000C04461546DD
:10521000012331463A4600F808CBBDF82C8000F057
:10522000B3F906B13FB901200A9BA4F8028063607C
:1052300002B0BDE8F08104F11C063046FCF778F9B5
:105240000DB135460026C4E90556ECE7012070474C
:10525000F8B50746084640F2FF13154610F8082B2C
:105260000C4612F0020F0CBF3F261E4600F0BCF9A0
:1052700028B925B12E4202D12378DA0701D50020C2
:10528000F8BD38466178FFF731FC0028F7D0237865
:1052900013F0010307D04FF0E023D3F8F03DDB0714
:1052A000EDD500BEEBE71A4638466178FFF742FCC1
:1052B0000028F0D0F8BD00BF70B501F10805064622
:1052C00028460C4600F090F910B12378D80701D594
:1052D000002070BD30466178FFF708FC0028F7D049
:1052E00028466288616800F0EBF92378054648B1EA
:1052F000D9070ED54FF0E023D3F8F03DDA07E7D514
:1053000000BEE5E7DB07E3D430466178FFF700FC39
:10531000DEE70346626830466178FFF70BFC002841
:10532000E8D0284670BD00BF2DE9F04163B11D46AD
:105330008B8906460C46904653B90B78D90703D49F
:105340006178FFF7D3FBF8B900252846BDE8F08166
:1053500001F1080738461146AAB200F06DFA237829
:10536000054613F0020F38460CBF40274FF4007774
:1053700000F03AF9B84202D2A389BB42E5D22146F5
:105380003046FFF799FFE0E7638841469D4228BF1A
:105390001D4660682A4600F0A9FB2378DA0707D586
:1053A0004FF0E023D3F8F03DDB07CDD500BECBE7CF
:1053B00061783DB162683046ABB2FFF7BBFB0028B5
:1053C000C3D1EDE72A46F6E78B8910B50C465BB9E9
:1053D0000B78DB0701D5002010BD4978FFF7E2FB11
:1053E0000028F8D1608810BD01F1080000F00CF928
:1053F00010BD00BF8A892DE9F0410B780C460546A7
:105400008AB9DF0725D44978FFF770FB08B3227803
:105410006388D6073FD54FF0E023D3F8F03DDA0795
:1054200017D500BE15E003F0020301F10808002BB8
:1054300040460CBF40274FF400774FF6C07618BFA8
:105440004FF47E4600F0E0F8874202D82378D80770
:1054500002D50020BDE8F08128466178FFF746FBC1
:105460000028F6D0404600F0CFF887421FD82378B6
:105470006288D907CFD43040904228BF1046617867
:105480000646E0B1626833462846FFF753FB002822
:10549000C1D03046DEE761783BB162682846FFF74D
:1054A00049FB0028B7D06088D4E71A46F6E723788E
:1054B000DB07CED428466178FFF72AFBC9E702460E
:1054C000E1E700BF2DE9F8430C4604F10807114657
:1054D00006469AB2384600F0F3F8A38905462BB980
:1054E0002378DB073CD52846BDE8F8832378384687
:1054F00003F00203002B4FF6C0730BBF4FF04009BF
:105500004FF4007998464FF47E4800F07DF8484506
:10551000E9D32378D807E6D430466178FFF7E6FA76
:105520000028E0D0384600F06FF88145237824D871
:10553000D90762880CD400EA0803934228BF1346B7
:105540006178C3B162683046FFF7F4FA0028CAD127
:105550004FF0E023D3F8F03DDA07C4D500BEC2E730
:1055600030466178FFF7C2FA0028BCD02278638801
:10557000D707E5D5ECE71A46E5E7DB07B3D43046B5
:105580006178FFF7C5FAAEE72DE9F041B2F5004FBB
:105590009DF8188024D80446C06817460E461D465C
:1055A00018B14FF0FF3100F097FB206918B14FF0B0
:1055B000FF3100F091FB0022C5F30E03E06843EADF
:1055C000C83362812660A780E380228108B100F0A1
:1055D00093FB206908B100F08FFB0120BDE8F0814A
:1055E0000020BDE8F08100BF038942899BB292B2DE
:1055F0008088934236BFC2EB40029B1A9B189BB235
:10560000984228BF18467047038942899BB2808818
:1056100092B2934236BFC2EB40029B1A9B189BB2D8
:10562000984286BFC01A80B20020704738B5044641
:1056300000690D4618B14FF0FF3100F04DFB218994
:10564000638989B29BB2A288994236BFC3EB4200FC
:10565000C81A401880B250B3824209D291422CBF7E
:10566000891A89188BB29A42638103D89B1A9BB21C
:105670009A42FBD9E2882168C2F30E0202FB0311B1
:10568000284600F033FA6189012589B24B1C9BB290
:105690009942A2880ED9002302FA05F15B1A9BB247
:1056A0002069638108B100F027FB284638BD054614
:1056B00063899BB2B3EB420F4FEA4201F0DBEDE7A7
:1056C0002DE9F047064600698846914618B14FF02B
:1056D000FF3100F001FB338974899BB2A4B2B58815
:1056E000A34236BFC4EB45071F1BFF18BFB2002FF4
:1056F0004AD0BD4240D3B94528BFB946A5421FFA9A
:1057000089F703D8641BA4B2A542FBD9B6F806A05A
:105710002B1B31689BB2CAF30E029F42924602FBDA
:10572000041123D913FB02F31FFA83F94A464046BA
:105730007D1B00F0DBF9621912FB0AF2316808EBFD
:10574000090092B200F0D2F97289B58892B2D319E9
:105750009BB29A421AD96A009B1A9BB23069738134
:1057600008B100F0C9FA3846BDE8F087404607FBAB
:1057700002F200F0BBF9E7E7AB422CBF5B1B5B1901
:105780009CB22F467481B6E773899BB2B3EB450F89
:105790004FEA4502E2DBDFE7F8B50446C0680E4693
:1057A00018B14FF0FF3100F097FA258923896189FC
:1057B0009BB289B2A2888B4236BFC1EB42015B1A11
:1057C0005B189BB29A42ADB208D8E779FF0905D1C0
:1057D000E06808B100F090FA3846F8BD954219D358
:1057E0002B469B1A9BB29342FBD2E2882068C2F3FD
:1057F0000E0202FB0300314600F078F96B1C9BB2ED
:105800009D42A28812D9002351005B1A9BB2012746
:105810002381DDE7E2882068C2F30E0205FB020067
:10582000314600F063F90135A288ABB2B3EB420F09
:105830004FEA4201EBDBE8E72DE9F04F164683B073
:10584000002A4CD00546C068884618B14FF0FF3199
:1058500000F042FAEA792F896989D209AB88BFB290
:1058600089B240D18F4236BFC1EB4301791AC919C1
:1058700089B2994241D2591A89B28E4228BF0E4646
:10588000B5F806A007EB0609A6EB030BCAF30E0A50
:105890001FFA89F91FFA8BFB9F423C4603D3E41A97
:1058A000A4B29C42FBD21B1B28689BB2B3420AFBEA
:1058B00004004BD341460AFB06F200F017F9AA8810
:1058C0004F454FEA420302D8B9EB420F03DBA9EB85
:1058D00003031FFA83F9E868A5F8089088B93046F1
:1058E00003B0BDE8F08FB5F806A09E42CAF30E0AD9
:1058F0000DD3002B3FD11E4600E00026E8680028AB
:10590000EDD000F0F9F9304603B0BDE8F08F8F42DA
:1059100036BFC1EB43027A1AD21992B25800324410
:10592000A6EB030B82421FFA8BFB0ADB01EB030998
:105930001FFA89F9A9EB0607BFB2B94218D9381A7C
:1059400087B206EB07091FFA89F9A5E713FB0AF3EB
:105950005C4414FB0AF49AB24146019200F0C6F886
:10596000019A286808EB0201A2B200F0BFF8A6E78E
:10597000B84291DCE3E7F61A01EB03090AFB06885B
:105980000F461E464FF0000B1FFA89F984E700BF4F
:1059900010B50446C06818B14FF0FF3100F09CF913
:1059A000206918B14FF0FF3100F096F90023E0684C
:1059B0006381238108B100F09FF9206908B100F0EC
:1059C0009BF9012010BD00BF08B51920FBF7CAFAEA
:1059D00019234FF0010242EC443008BD00B545F2F6
:1059E00047308BB0FCF768FA01220346092101A871
:1059F0009847DDE90332044912BA1BBAC1E9002312
:105A00000BB05DF804FB00BF140202200023014626
:105A10001A46184600F00EB970B5860747D0541ED6
:105A2000002A3ED0CAB2034601E0013C39D303F854
:105A3000012B9D07F9D1032C2CD9CDB20F2C05EBEE
:105A4000052505EB054535D9A4F1100C03F1100E21
:105A50001A462CF00F064FEA1C1CB644C2E900554A
:105A6000C2E9025510327245F8D10CF1010214F06E
:105A70000C0F04F00F0C03EB021213D0ACF1040373
:105A800023F003030433134442F8045B9342FBD135
:105A90000CF003042CB1C9B21C4403F8011BA3424F
:105AA000FBD170BD64461346002CF4D1F9E70346E0
:105AB0001446C0E71A46A446E0E700BF38B5074DD4
:105AC000074C2C1BA41005D0013C55F8043D984709
:105AD000002CF9D1BDE8384000F0F8B8645D001042
